{
  "transactions": [
    {
      "hash": "0x8c0c895e3d580b3313f59361a55b1ac3a766a2479afedae10a470ffa309dc7c6",
      "transactionType": "CALL",
      "contractName": null,
      "contractAddress": "0x19cfa3A50Abf669FF7000675e81F6A6Cbbe7436A",
      "function": "setBaseUri(string)",
      "arguments": [
        "\"https://coral-estimated-smelt-608.mypinata.cloud/ipfs/QmTm8ma6X2Ewi9NWb1T2ypCSrEUCST279aZGq65y8hsnAA/\""
      ],
      "transaction": {
        "type": "0x02",
        "from": "0xb4f28403cc940878292046208cb9476b00c5c197",
        "to": "0x19cfa3a50abf669ff7000675e81f6a6cbbe7436a",
        "gas": "0xfb6c",
        "value": "0x0",
        "data": "0xa0bcfc7f0000000000000000000000000000000000000000000000000000000000000020000000000000000000000000000000000000000000000000000000000000006568747470733a2f2f636f72616c2d657374696d617465642d736d656c742d3630382e6d7970696e6174612e636c6f75642f697066732f516d546d386d61365832457769394e576231543279704353724555435354323739615a47713635793868736e41412f000000000000000000000000000000000000000000000000000000",
        "nonce": "0x1f",
        "accessList": []
      },
      "additionalContracts": [],
      "isFixedGasLimit": false
    }
  ],
  "receipts": [
    {
      "transactionHash": "0x8c0c895e3d580b3313f59361a55b1ac3a766a2479afedae10a470ffa309dc7c6",
      "transactionIndex": "0x26",
      "blockHash": "0xbc739a21ddafbb080b40ec2e022160caad3453afc0cf9640e4a71945d26ee879",
      "blockNumber": "0x4dc38e",
      "from": "0xb4f28403cC940878292046208Cb9476b00C5C197",
      "to": "0x19cfa3A50Abf669FF7000675e81F6A6Cbbe7436A",
      "cumulativeGasUsed": "0x2e9368",
      "gasUsed": "0xabea",
      "contractAddress": null,
      "logs": [],
      "status": "0x1",
      "logsBloom": "0x00000000000000000000000000000000000000000000000000000000000000000000000000000000000000000000000000000000000000000000000000000000000000000000000000000000000000000000000000000000000000000000000000000000000000000000000000000000000000000000000000000000000000000000000000000000000000000000000000000000000000000000000000000000000000000000000000000000000000000000000000000000000000000000000000000000000000000000000000000000000000000000000000000000000000000000000000000000000000000000000000000000000000000000000000000000",
      "type": "0x2",
      "effectiveGasPrice": "0xf8c551f44"
    }
  ],
  "libraries": [],
  "pending": [],
  "returns": {},
  "timestamp": 1705409128,
  "chain": 11155111,
  "multi": false,
  "commit": "878a08c"
}