{
  "transactions": [
    {
      "hash": "0x053f7df0636ba712855ca14eb49c02dd8cd6ecacc98b531c747b46b0dbf10463",
      "transactionType": "CALL",
      "contractName": null,
      "contractAddress": "0x19cfa3A50Abf669FF7000675e81F6A6Cbbe7436A",
      "function": "setBaseUri(string)",
      "arguments": [
        "\"https://ipfs.io/ipfs/Qmf3AoXap9A2AKXKGJpVo7ZbYEJLM7Gm1fY1sGnBP2ZjWq/\""
      ],
      "transaction": {
        "type": "0x02",
        "from": "0xb4f28403cc940878292046208cb9476b00c5c197",
        "to": "0x19cfa3a50abf669ff7000675e81f6a6cbbe7436a",
        "gas": "0xfcbe",
        "value": "0x0",
        "data": "0xa0bcfc7f0000000000000000000000000000000000000000000000000000000000000020000000000000000000000000000000000000000000000000000000000000004468747470733a2f2f697066732e696f2f697066732f516d6633416f586170394132414b584b474a70566f375a6259454a4c4d37476d3166593173476e4250325a6a57712f00000000000000000000000000000000000000000000000000000000",
        "nonce": "0x23",
        "accessList": []
      },
      "additionalContracts": [],
      "isFixedGasLimit": false
    }
  ],
  "receipts": [],
  "libraries": [],
  "pending": [
    "0x053f7df0636ba712855ca14eb49c02dd8cd6ecacc98b531c747b46b0dbf10463"
  ],
  "returns": {},
  "timestamp": 1705414514,
  "chain": 11155111,
  "multi": false,
  "commit": "878a08c"
}