{
  "transactions": [
    {
      "hash": "0xc8de459c7755797dd017b7334d2efe6b648fae3846527041df9a5a9f5f31d497",
      "transactionType": "CALL",
      "contractName": "MockERC721",
      "contractAddress": "0xB919133E05E67476e37748299c8235F83A331e9a",
      "function": "safeMint(address,uint256,string)",
      "arguments": [
        "0x872f2Fc756b18B3Cc028bd0Cee10a9aE1683Cc0B",
        "1",
        "\"ipfs://QmNspLBCSVPDPDqCMx4Yd4VoCLA5RTDbtAqphkLT4489ms/1.json\""
      ],
      "transaction": {
        "type": "0x02",
        "from": "0xb4f28403cc940878292046208cb9476b00c5c197",
        "to": "0xb919133e05e67476e37748299c8235f83a331e9a",
        "gas": "0x305e0",
        "value": "0x0",
        "data": "0xcd279c7c000000000000000000000000872f2fc756b18b3cc028bd0cee10a9ae1683cc0b00000000000000000000000000000000000000000000000000000000000000010000000000000000000000000000000000000000000000000000000000000060000000000000000000000000000000000000000000000000000000000000003c697066733a2f2f516d4e73704c424353565044504471434d7834596434566f434c41355254446274417170686b4c54343438396d732f312e6a736f6e00000000",
        "nonce": "0x3e",
        "accessList": []
      },
      "additionalContracts": [],
      "isFixedGasLimit": false
    },
    {
      "hash": "0x2b4975d22d47af80009bbfed0ae734e147ef9d899fd05f6e7025d20d0dfe63b3",
      "transactionType": "CALL",
      "contractName": "MockERC721",
      "contractAddress": "0xB919133E05E67476e37748299c8235F83A331e9a",
      "function": "safeMint(address,uint256,string)",
      "arguments": [
        "0x872f2Fc756b18B3Cc028bd0Cee10a9aE1683Cc0B",
        "2",
        "\"ipfs://QmNspLBCSVPDPDqCMx4Yd4VoCLA5RTDbtAqphkLT4489ms/2.json\""
      ],
      "transaction": {
        "type": "0x02",
        "from": "0xb4f28403cc940878292046208cb9476b00c5c197",
        "to": "0xb919133e05e67476e37748299c8235f83a331e9a",
        "gas": "0x2d1b5",
        "value": "0x0",
        "data": "0xcd279c7c000000000000000000000000872f2fc756b18b3cc028bd0cee10a9ae1683cc0b00000000000000000000000000000000000000000000000000000000000000020000000000000000000000000000000000000000000000000000000000000060000000000000000000000000000000000000000000000000000000000000003c697066733a2f2f516d4e73704c424353565044504471434d7834596434566f434c41355254446274417170686b4c54343438396d732f322e6a736f6e00000000",
        "nonce": "0x3f",
        "accessList": []
      },
      "additionalContracts": [],
      "isFixedGasLimit": false
    },
    {
      "hash": "0xc9df76727e6b2576503f103446bde7bff3bafe02c150eea19b3aa928d89ed05b",
      "transactionType": "CALL",
      "contractName": "MockERC721",
      "contractAddress": "0xB919133E05E67476e37748299c8235F83A331e9a",
      "function": "safeMint(address,uint256,string)",
      "arguments": [
        "0x872f2Fc756b18B3Cc028bd0Cee10a9aE1683Cc0B",
        "3",
        "\"ipfs://QmNspLBCSVPDPDqCMx4Yd4VoCLA5RTDbtAqphkLT4489ms/3.json\""
      ],
      "transaction": {
        "type": "0x02",
        "from": "0xb4f28403cc940878292046208cb9476b00c5c197",
        "to": "0xb919133e05e67476e37748299c8235f83a331e9a",
        "gas": "0x2d1b5",
        "value": "0x0",
        "data": "0xcd279c7c000000000000000000000000872f2fc756b18b3cc028bd0cee10a9ae1683cc0b00000000000000000000000000000000000000000000000000000000000000030000000000000000000000000000000000000000000000000000000000000060000000000000000000000000000000000000000000000000000000000000003c697066733a2f2f516d4e73704c424353565044504471434d7834596434566f434c41355254446274417170686b4c54343438396d732f332e6a736f6e00000000",
        "nonce": "0x40",
        "accessList": []
      },
      "additionalContracts": [],
      "isFixedGasLimit": false
    },
    {
      "hash": "0xbc3432eef0426919f190d1dbba6da14142d0e6580f8f87d331e78d173925b4df",
      "transactionType": "CALL",
      "contractName": "MockERC721",
      "contractAddress": "0xB919133E05E67476e37748299c8235F83A331e9a",
      "function": "safeMint(address,uint256,string)",
      "arguments": [
        "0x872f2Fc756b18B3Cc028bd0Cee10a9aE1683Cc0B",
        "4",
        "\"ipfs://QmNspLBCSVPDPDqCMx4Yd4VoCLA5RTDbtAqphkLT4489ms/4.json\""
      ],
      "transaction": {
        "type": "0x02",
        "from": "0xb4f28403cc940878292046208cb9476b00c5c197",
        "to": "0xb919133e05e67476e37748299c8235f83a331e9a",
        "gas": "0x2d1b5",
        "value": "0x0",
        "data": "0xcd279c7c000000000000000000000000872f2fc756b18b3cc028bd0cee10a9ae1683cc0b00000000000000000000000000000000000000000000000000000000000000040000000000000000000000000000000000000000000000000000000000000060000000000000000000000000000000000000000000000000000000000000003c697066733a2f2f516d4e73704c424353565044504471434d7834596434566f434c41355254446274417170686b4c54343438396d732f342e6a736f6e00000000",
        "nonce": "0x41",
        "accessList": []
      },
      "additionalContracts": [],
      "isFixedGasLimit": false
    },
    {
      "hash": "0xf3c526897d5233b3ee1588709c83b7c611dd91c444c94a70c6a9bd717a63cbf9",
      "transactionType": "CALL",
      "contractName": "MockERC721",
      "contractAddress": "0xB919133E05E67476e37748299c8235F83A331e9a",
      "function": "safeMint(address,uint256,string)",
      "arguments": [
        "0x872f2Fc756b18B3Cc028bd0Cee10a9aE1683Cc0B",
        "5",
        "\"ipfs://QmNspLBCSVPDPDqCMx4Yd4VoCLA5RTDbtAqphkLT4489ms/5.json\""
      ],
      "transaction": {
        "type": "0x02",
        "from": "0xb4f28403cc940878292046208cb9476b00c5c197",
        "to": "0xb919133e05e67476e37748299c8235f83a331e9a",
        "gas": "0x2d1b5",
        "value": "0x0",
        "data": "0xcd279c7c000000000000000000000000872f2fc756b18b3cc028bd0cee10a9ae1683cc0b00000000000000000000000000000000000000000000000000000000000000050000000000000000000000000000000000000000000000000000000000000060000000000000000000000000000000000000000000000000000000000000003c697066733a2f2f516d4e73704c424353565044504471434d7834596434566f434c41355254446274417170686b4c54343438396d732f352e6a736f6e00000000",
        "nonce": "0x42",
        "accessList": []
      },
      "additionalContracts": [],
      "isFixedGasLimit": false
    },
    {
      "hash": "0xb229a98af92745dd981e71a70401ee77c9629d379019fe05813b04dae78cf17b",
      "transactionType": "CALL",
      "contractName": "MockERC721",
      "contractAddress": "0xB919133E05E67476e37748299c8235F83A331e9a",
      "function": "safeMint(address,uint256,string)",
      "arguments": [
        "0x872f2Fc756b18B3Cc028bd0Cee10a9aE1683Cc0B",
        "6",
        "\"ipfs://QmNspLBCSVPDPDqCMx4Yd4VoCLA5RTDbtAqphkLT4489ms/6.json\""
      ],
      "transaction": {
        "type": "0x02",
        "from": "0xb4f28403cc940878292046208cb9476b00c5c197",
        "to": "0xb919133e05e67476e37748299c8235f83a331e9a",
        "gas": "0x2d1b5",
        "value": "0x0",
        "data": "0xcd279c7c000000000000000000000000872f2fc756b18b3cc028bd0cee10a9ae1683cc0b00000000000000000000000000000000000000000000000000000000000000060000000000000000000000000000000000000000000000000000000000000060000000000000000000000000000000000000000000000000000000000000003c697066733a2f2f516d4e73704c424353565044504471434d7834596434566f434c41355254446274417170686b4c54343438396d732f362e6a736f6e00000000",
        "nonce": "0x43",
        "accessList": []
      },
      "additionalContracts": [],
      "isFixedGasLimit": false
    },
    {
      "hash": "0x02dbadef44b0569ab3c0564ea778552c0a4448b4601a82d68205c1473d40f8a2",
      "transactionType": "CALL",
      "contractName": "MockERC721",
      "contractAddress": "0xB919133E05E67476e37748299c8235F83A331e9a",
      "function": "safeMint(address,uint256,string)",
      "arguments": [
        "0x872f2Fc756b18B3Cc028bd0Cee10a9aE1683Cc0B",
        "7",
        "\"ipfs://QmNspLBCSVPDPDqCMx4Yd4VoCLA5RTDbtAqphkLT4489ms/7.json\""
      ],
      "transaction": {
        "type": "0x02",
        "from": "0xb4f28403cc940878292046208cb9476b00c5c197",
        "to": "0xb919133e05e67476e37748299c8235f83a331e9a",
        "gas": "0x2d1b5",
        "value": "0x0",
        "data": "0xcd279c7c000000000000000000000000872f2fc756b18b3cc028bd0cee10a9ae1683cc0b00000000000000000000000000000000000000000000000000000000000000070000000000000000000000000000000000000000000000000000000000000060000000000000000000000000000000000000000000000000000000000000003c697066733a2f2f516d4e73704c424353565044504471434d7834596434566f434c41355254446274417170686b4c54343438396d732f372e6a736f6e00000000",
        "nonce": "0x44",
        "accessList": []
      },
      "additionalContracts": [],
      "isFixedGasLimit": false
    },
    {
      "hash": "0xfa6349306295858f7ad90e287b9eeab182b7a3474e9fe1fb9729e3a0d07838fc",
      "transactionType": "CALL",
      "contractName": "MockERC721",
      "contractAddress": "0xB919133E05E67476e37748299c8235F83A331e9a",
      "function": "safeMint(address,uint256,string)",
      "arguments": [
        "0x872f2Fc756b18B3Cc028bd0Cee10a9aE1683Cc0B",
        "8",
        "\"ipfs://QmNspLBCSVPDPDqCMx4Yd4VoCLA5RTDbtAqphkLT4489ms/8.json\""
      ],
      "transaction": {
        "type": "0x02",
        "from": "0xb4f28403cc940878292046208cb9476b00c5c197",
        "to": "0xb919133e05e67476e37748299c8235f83a331e9a",
        "gas": "0x2d1b5",
        "value": "0x0",
        "data": "0xcd279c7c000000000000000000000000872f2fc756b18b3cc028bd0cee10a9ae1683cc0b00000000000000000000000000000000000000000000000000000000000000080000000000000000000000000000000000000000000000000000000000000060000000000000000000000000000000000000000000000000000000000000003c697066733a2f2f516d4e73704c424353565044504471434d7834596434566f434c41355254446274417170686b4c54343438396d732f382e6a736f6e00000000",
        "nonce": "0x45",
        "accessList": []
      },
      "additionalContracts": [],
      "isFixedGasLimit": false
    },
    {
      "hash": "0x1e6f77a781d5c2d790a40d97cf11ee30afc57cb77f38b05ac8f411423b78c204",
      "transactionType": "CALL",
      "contractName": "MockERC721",
      "contractAddress": "0xB919133E05E67476e37748299c8235F83A331e9a",
      "function": "safeMint(address,uint256,string)",
      "arguments": [
        "0x872f2Fc756b18B3Cc028bd0Cee10a9aE1683Cc0B",
        "9",
        "\"ipfs://QmNspLBCSVPDPDqCMx4Yd4VoCLA5RTDbtAqphkLT4489ms/9.json\""
      ],
      "transaction": {
        "type": "0x02",
        "from": "0xb4f28403cc940878292046208cb9476b00c5c197",
        "to": "0xb919133e05e67476e37748299c8235f83a331e9a",
        "gas": "0x2d1b5",
        "value": "0x0",
        "data": "0xcd279c7c000000000000000000000000872f2fc756b18b3cc028bd0cee10a9ae1683cc0b00000000000000000000000000000000000000000000000000000000000000090000000000000000000000000000000000000000000000000000000000000060000000000000000000000000000000000000000000000000000000000000003c697066733a2f2f516d4e73704c424353565044504471434d7834596434566f434c41355254446274417170686b4c54343438396d732f392e6a736f6e00000000",
        "nonce": "0x46",
        "accessList": []
      },
      "additionalContracts": [],
      "isFixedGasLimit": false
    },
    {
      "hash": "0x372a6391577d6b58dad6fa0964d3a938e0eecdb4c92bc718020f84753366b26d",
      "transactionType": "CALL",
      "contractName": "MockERC721",
      "contractAddress": "0xB919133E05E67476e37748299c8235F83A331e9a",
      "function": "safeMint(address,uint256,string)",
      "arguments": [
        "0x872f2Fc756b18B3Cc028bd0Cee10a9aE1683Cc0B",
        "10",
        "\"ipfs://QmNspLBCSVPDPDqCMx4Yd4VoCLA5RTDbtAqphkLT4489ms/10.json\""
      ],
      "transaction": {
        "type": "0x02",
        "from": "0xb4f28403cc940878292046208cb9476b00c5c197",
        "to": "0xb919133e05e67476e37748299c8235f83a331e9a",
        "gas": "0x2a9ad",
        "value": "0x0",
        "data": "0xcd279c7c000000000000000000000000872f2fc756b18b3cc028bd0cee10a9ae1683cc0b000000000000000000000000000000000000000000000000000000000000000a0000000000000000000000000000000000000000000000000000000000000060000000000000000000000000000000000000000000000000000000000000003d697066733a2f2f516d4e73704c424353565044504471434d7834596434566f434c41355254446274417170686b4c54343438396d732f31302e6a736f6e000000",
        "nonce": "0x47",
        "accessList": []
      },
      "additionalContracts": [],
      "isFixedGasLimit": false
    },
    {
      "hash": "0x1be62d0d5a6c7b4ea8d1be0aa0168723bdfa6fcc62df53d0caf70faf97ea6ba0",
      "transactionType": "CALL",
      "contractName": "MockERC721",
      "contractAddress": "0xB919133E05E67476e37748299c8235F83A331e9a",
      "function": "safeMint(address,uint256,string)",
      "arguments": [
        "0x872f2Fc756b18B3Cc028bd0Cee10a9aE1683Cc0B",
        "11",
        "\"ipfs://QmNspLBCSVPDPDqCMx4Yd4VoCLA5RTDbtAqphkLT4489ms/11.json\""
      ],
      "transaction": {
        "type": "0x02",
        "from": "0xb4f28403cc940878292046208cb9476b00c5c197",
        "to": "0xb919133e05e67476e37748299c8235f83a331e9a",
        "gas": "0x2a9ad",
        "value": "0x0",
        "data": "0xcd279c7c000000000000000000000000872f2fc756b18b3cc028bd0cee10a9ae1683cc0b000000000000000000000000000000000000000000000000000000000000000b0000000000000000000000000000000000000000000000000000000000000060000000000000000000000000000000000000000000000000000000000000003d697066733a2f2f516d4e73704c424353565044504471434d7834596434566f434c41355254446274417170686b4c54343438396d732f31312e6a736f6e000000",
        "nonce": "0x48",
        "accessList": []
      },
      "additionalContracts": [],
      "isFixedGasLimit": false
    },
    {
      "hash": "0xee8421d689fd7ea3565e767bfa08869b049e58ea6e89bb83c87d9e2fdc19e899",
      "transactionType": "CALL",
      "contractName": "MockERC721",
      "contractAddress": "0xB919133E05E67476e37748299c8235F83A331e9a",
      "function": "safeMint(address,uint256,string)",
      "arguments": [
        "0x872f2Fc756b18B3Cc028bd0Cee10a9aE1683Cc0B",
        "12",
        "\"ipfs://QmNspLBCSVPDPDqCMx4Yd4VoCLA5RTDbtAqphkLT4489ms/12.json\""
      ],
      "transaction": {
        "type": "0x02",
        "from": "0xb4f28403cc940878292046208cb9476b00c5c197",
        "to": "0xb919133e05e67476e37748299c8235f83a331e9a",
        "gas": "0x2a9ad",
        "value": "0x0",
        "data": "0xcd279c7c000000000000000000000000872f2fc756b18b3cc028bd0cee10a9ae1683cc0b000000000000000000000000000000000000000000000000000000000000000c0000000000000000000000000000000000000000000000000000000000000060000000000000000000000000000000000000000000000000000000000000003d697066733a2f2f516d4e73704c424353565044504471434d7834596434566f434c41355254446274417170686b4c54343438396d732f31322e6a736f6e000000",
        "nonce": "0x49",
        "accessList": []
      },
      "additionalContracts": [],
      "isFixedGasLimit": false
    },
    {
      "hash": "0xa96e19accdbd76d4322d214783a7927987e62d6b0048163d4efce61c13ee7a01",
      "transactionType": "CALL",
      "contractName": "MockERC721",
      "contractAddress": "0xB919133E05E67476e37748299c8235F83A331e9a",
      "function": "safeMint(address,uint256,string)",
      "arguments": [
        "0x872f2Fc756b18B3Cc028bd0Cee10a9aE1683Cc0B",
        "13",
        "\"ipfs://QmNspLBCSVPDPDqCMx4Yd4VoCLA5RTDbtAqphkLT4489ms/13.json\""
      ],
      "transaction": {
        "type": "0x02",
        "from": "0xb4f28403cc940878292046208cb9476b00c5c197",
        "to": "0xb919133e05e67476e37748299c8235f83a331e9a",
        "gas": "0x2a9ad",
        "value": "0x0",
        "data": "0xcd279c7c000000000000000000000000872f2fc756b18b3cc028bd0cee10a9ae1683cc0b000000000000000000000000000000000000000000000000000000000000000d0000000000000000000000000000000000000000000000000000000000000060000000000000000000000000000000000000000000000000000000000000003d697066733a2f2f516d4e73704c424353565044504471434d7834596434566f434c41355254446274417170686b4c54343438396d732f31332e6a736f6e000000",
        "nonce": "0x4a",
        "accessList": []
      },
      "additionalContracts": [],
      "isFixedGasLimit": false
    },
    {
      "hash": "0x9d2d9dd1fc8c116ab1f3975cdc3f4d1aa4d992541dba8cc8dfab90c1406b29a6",
      "transactionType": "CALL",
      "contractName": "MockERC721",
      "contractAddress": "0xB919133E05E67476e37748299c8235F83A331e9a",
      "function": "safeMint(address,uint256,string)",
      "arguments": [
        "0x872f2Fc756b18B3Cc028bd0Cee10a9aE1683Cc0B",
        "14",
        "\"ipfs://QmNspLBCSVPDPDqCMx4Yd4VoCLA5RTDbtAqphkLT4489ms/14.json\""
      ],
      "transaction": {
        "type": "0x02",
        "from": "0xb4f28403cc940878292046208cb9476b00c5c197",
        "to": "0xb919133e05e67476e37748299c8235f83a331e9a",
        "gas": "0x2a9ad",
        "value": "0x0",
        "data": "0xcd279c7c000000000000000000000000872f2fc756b18b3cc028bd0cee10a9ae1683cc0b000000000000000000000000000000000000000000000000000000000000000e0000000000000000000000000000000000000000000000000000000000000060000000000000000000000000000000000000000000000000000000000000003d697066733a2f2f516d4e73704c424353565044504471434d7834596434566f434c41355254446274417170686b4c54343438396d732f31342e6a736f6e000000",
        "nonce": "0x4b",
        "accessList": []
      },
      "additionalContracts": [],
      "isFixedGasLimit": false
    },
    {
      "hash": "0xbad719908ccc41bce1e7cd4aaabea6e760d838a06a205feaf5c6ef1690e89ad3",
      "transactionType": "CALL",
      "contractName": "MockERC721",
      "contractAddress": "0xB919133E05E67476e37748299c8235F83A331e9a",
      "function": "safeMint(address,uint256,string)",
      "arguments": [
        "0x872f2Fc756b18B3Cc028bd0Cee10a9aE1683Cc0B",
        "15",
        "\"ipfs://QmNspLBCSVPDPDqCMx4Yd4VoCLA5RTDbtAqphkLT4489ms/15.json\""
      ],
      "transaction": {
        "type": "0x02",
        "from": "0xb4f28403cc940878292046208cb9476b00c5c197",
        "to": "0xb919133e05e67476e37748299c8235f83a331e9a",
        "gas": "0x2a9ad",
        "value": "0x0",
        "data": "0xcd279c7c000000000000000000000000872f2fc756b18b3cc028bd0cee10a9ae1683cc0b000000000000000000000000000000000000000000000000000000000000000f0000000000000000000000000000000000000000000000000000000000000060000000000000000000000000000000000000000000000000000000000000003d697066733a2f2f516d4e73704c424353565044504471434d7834596434566f434c41355254446274417170686b4c54343438396d732f31352e6a736f6e000000",
        "nonce": "0x4c",
        "accessList": []
      },
      "additionalContracts": [],
      "isFixedGasLimit": false
    },
    {
      "hash": "0xf5e0b09b8af014172bdb72d1c9298082a59f8738f324cf2d4133c8fc9c86728b",
      "transactionType": "CALL",
      "contractName": "MockERC721",
      "contractAddress": "0xB919133E05E67476e37748299c8235F83A331e9a",
      "function": "safeMint(address,uint256,string)",
      "arguments": [
        "0x872f2Fc756b18B3Cc028bd0Cee10a9aE1683Cc0B",
        "16",
        "\"ipfs://QmNspLBCSVPDPDqCMx4Yd4VoCLA5RTDbtAqphkLT4489ms/16.json\""
      ],
      "transaction": {
        "type": "0x02",
        "from": "0xb4f28403cc940878292046208cb9476b00c5c197",
        "to": "0xb919133e05e67476e37748299c8235f83a331e9a",
        "gas": "0x2a9ad",
        "value": "0x0",
        "data": "0xcd279c7c000000000000000000000000872f2fc756b18b3cc028bd0cee10a9ae1683cc0b00000000000000000000000000000000000000000000000000000000000000100000000000000000000000000000000000000000000000000000000000000060000000000000000000000000000000000000000000000000000000000000003d697066733a2f2f516d4e73704c424353565044504471434d7834596434566f434c41355254446274417170686b4c54343438396d732f31362e6a736f6e000000",
        "nonce": "0x4d",
        "accessList": []
      },
      "additionalContracts": [],
      "isFixedGasLimit": false
    },
    {
      "hash": "0xc260c37d01ba4587d6b3e41bb66cf159a2c65f12d3c6d89627be57725c052117",
      "transactionType": "CALL",
      "contractName": "MockERC721",
      "contractAddress": "0xB919133E05E67476e37748299c8235F83A331e9a",
      "function": "safeMint(address,uint256,string)",
      "arguments": [
        "0x872f2Fc756b18B3Cc028bd0Cee10a9aE1683Cc0B",
        "17",
        "\"ipfs://QmNspLBCSVPDPDqCMx4Yd4VoCLA5RTDbtAqphkLT4489ms/17.json\""
      ],
      "transaction": {
        "type": "0x02",
        "from": "0xb4f28403cc940878292046208cb9476b00c5c197",
        "to": "0xb919133e05e67476e37748299c8235f83a331e9a",
        "gas": "0x2a9ad",
        "value": "0x0",
        "data": "0xcd279c7c000000000000000000000000872f2fc756b18b3cc028bd0cee10a9ae1683cc0b00000000000000000000000000000000000000000000000000000000000000110000000000000000000000000000000000000000000000000000000000000060000000000000000000000000000000000000000000000000000000000000003d697066733a2f2f516d4e73704c424353565044504471434d7834596434566f434c41355254446274417170686b4c54343438396d732f31372e6a736f6e000000",
        "nonce": "0x4e",
        "accessList": []
      },
      "additionalContracts": [],
      "isFixedGasLimit": false
    }
  ],
  "receipts": [],
  "libraries": [],
  "pending": [
    "0xc8de459c7755797dd017b7334d2efe6b648fae3846527041df9a5a9f5f31d497",
    "0x2b4975d22d47af80009bbfed0ae734e147ef9d899fd05f6e7025d20d0dfe63b3",
    "0xc9df76727e6b2576503f103446bde7bff3bafe02c150eea19b3aa928d89ed05b",
    "0xbc3432eef0426919f190d1dbba6da14142d0e6580f8f87d331e78d173925b4df",
    "0xf3c526897d5233b3ee1588709c83b7c611dd91c444c94a70c6a9bd717a63cbf9",
    "0xb229a98af92745dd981e71a70401ee77c9629d379019fe05813b04dae78cf17b",
    "0x02dbadef44b0569ab3c0564ea778552c0a4448b4601a82d68205c1473d40f8a2",
    "0xfa6349306295858f7ad90e287b9eeab182b7a3474e9fe1fb9729e3a0d07838fc",
    "0x1e6f77a781d5c2d790a40d97cf11ee30afc57cb77f38b05ac8f411423b78c204",
    "0x372a6391577d6b58dad6fa0964d3a938e0eecdb4c92bc718020f84753366b26d",
    "0x1be62d0d5a6c7b4ea8d1be0aa0168723bdfa6fcc62df53d0caf70faf97ea6ba0",
    "0xee8421d689fd7ea3565e767bfa08869b049e58ea6e89bb83c87d9e2fdc19e899",
    "0xa96e19accdbd76d4322d214783a7927987e62d6b0048163d4efce61c13ee7a01",
    "0x9d2d9dd1fc8c116ab1f3975cdc3f4d1aa4d992541dba8cc8dfab90c1406b29a6",
    "0xbad719908ccc41bce1e7cd4aaabea6e760d838a06a205feaf5c6ef1690e89ad3",
    "0xf5e0b09b8af014172bdb72d1c9298082a59f8738f324cf2d4133c8fc9c86728b",
    "0xc260c37d01ba4587d6b3e41bb66cf159a2c65f12d3c6d89627be57725c052117"
  ],
  "returns": {},
  "timestamp": 1705579700,
  "chain": 11155111,
  "multi": false,
  "commit": "24c3717"
}