{
  "transactions": [
    {
      "hash": "0x857b53144b2d5d94f0413e83864c12ed9f1648795ac37e8f9ffc8467d1c205ae",
      "transactionType": "CALL",
      "contractName": null,
      "contractAddress": "0x19cfa3A50Abf669FF7000675e81F6A6Cbbe7436A",
      "function": "setBaseUri(string)",
      "arguments": [
        "\"https://coral-estimated-smelt-608.mypinata.cloud/ipfs/QmYXJybDKfv5JD7zckBLZj9Bk9xBnWxsk8V85dtzLYXhjG/\""
      ],
      "transaction": {
        "type": "0x02",
        "from": "0xb4f28403cc940878292046208cb9476b00c5c197",
        "to": "0x19cfa3a50abf669ff7000675e81f6a6cbbe7436a",
        "gas": "0x1decb",
        "value": "0x0",
        "data": "0xa0bcfc7f0000000000000000000000000000000000000000000000000000000000000020000000000000000000000000000000000000000000000000000000000000006568747470733a2f2f636f72616c2d657374696d617465642d736d656c742d3630382e6d7970696e6174612e636c6f75642f697066732f516d59584a7962444b6676354a44377a636b424c5a6a39426b3978426e5778736b3856383564747a4c5958686a472f000000000000000000000000000000000000000000000000000000",
        "nonce": "0x21",
        "accessList": []
      },
      "additionalContracts": [],
      "isFixedGasLimit": false
    }
  ],
  "receipts": [],
  "libraries": [],
  "pending": [
    "0x857b53144b2d5d94f0413e83864c12ed9f1648795ac37e8f9ffc8467d1c205ae"
  ],
  "returns": {},
  "timestamp": 1705410436,
  "chain": 11155111,
  "multi": false,
  "commit": "878a08c"
}