{
  "transactions": [
    {
      "hash": "0x4ad7e16d2cb0cf75bc55845dd11e7c875fbfda3787c036099c3465a7a9cb7448",
      "transactionType": "CALL",
      "contractName": null,
      "contractAddress": "0x19cfa3A50Abf669FF7000675e81F6A6Cbbe7436A",
      "function": "mint(address,uint256)",
      "arguments": [
        "0xb4f28403cC940878292046208Cb9476b00C5C197",
        "1"
      ],
      "transaction": {
        "type": "0x02",
        "from": "0xb4f28403cc940878292046208cb9476b00c5c197",
        "to": "0x19cfa3a50abf669ff7000675e81f6a6cbbe7436a",
        "gas": "0x1712e",
        "value": "0x0",
        "data": "0x40c10f19000000000000000000000000b4f28403cc940878292046208cb9476b00c5c1970000000000000000000000000000000000000000000000000000000000000001",
        "nonce": "0x1d",
        "accessList": []
      },
      "additionalContracts": [],
      "isFixedGasLimit": false
    },
    {
      "hash": "0x4bdda2d27f1d990d8d014cd6007ee84ffb9597bfd05a51dfb493385b682b1d28",
      "transactionType": "CALL",
      "contractName": null,
      "contractAddress": "0x19cfa3A50Abf669FF7000675e81F6A6Cbbe7436A",
      "function": "setBaseUri(string)",
      "arguments": [
        "\"https://coral-estimated-smelt-608.mypinata.cloud/ipfs/QmR3jV4XhCjdhqsJR6geCMrcBKNsK2JQCig7mJcVtgd6Nq/\""
      ],
      "transaction": {
        "type": "0x02",
        "from": "0xb4f28403cc940878292046208cb9476b00c5c197",
        "to": "0x19cfa3a50abf669ff7000675e81f6a6cbbe7436a",
        "gas": "0x2d87f",
        "value": "0x0",
        "data": "0xa0bcfc7f0000000000000000000000000000000000000000000000000000000000000020000000000000000000000000000000000000000000000000000000000000006568747470733a2f2f636f72616c2d657374696d617465642d736d656c742d3630382e6d7970696e6174612e636c6f75642f697066732f516d52336a56345868436a646871734a52366765434d7263424b4e734b324a51436967376d4a6356746764364e712f000000000000000000000000000000000000000000000000000000",
        "nonce": "0x1e",
        "accessList": []
      },
      "additionalContracts": [],
      "isFixedGasLimit": false
    }
  ],
  "receipts": [
    {
      "transactionHash": "0x4ad7e16d2cb0cf75bc55845dd11e7c875fbfda3787c036099c3465a7a9cb7448",
      "transactionIndex": "0xe",
      "blockHash": "0xb379e37f893e5c4a5e4383df8519259e013303e133c94834ec5fea7b790c3b46",
      "blockNumber": "0x4dc365",
      "from": "0xb4f28403cC940878292046208Cb9476b00C5C197",
      "to": "0x19cfa3A50Abf669FF7000675e81F6A6Cbbe7436A",
      "cumulativeGasUsed": "0x2eca70",
      "gasUsed": "0x10b48",
      "contractAddress": null,
      "logs": [
        {
          "address": "0x19cfa3A50Abf669FF7000675e81F6A6Cbbe7436A",
          "topics": [
            "0xddf252ad1be2c89b69c2b068fc378daa952ba7f163c4a11628f55a4df523b3ef",
            "0x0000000000000000000000000000000000000000000000000000000000000000",
            "0x000000000000000000000000b4f28403cc940878292046208cb9476b00c5c197",
            "0x0000000000000000000000000000000000000000000000000000000000000001"
          ],
          "data": "0x",
          "blockHash": "0xb379e37f893e5c4a5e4383df8519259e013303e133c94834ec5fea7b790c3b46",
          "blockNumber": "0x4dc365",
          "transactionHash": "0x4ad7e16d2cb0cf75bc55845dd11e7c875fbfda3787c036099c3465a7a9cb7448",
          "transactionIndex": "0xe",
          "logIndex": "0x20",
          "removed": false
        }
      ],
      "status": "0x1",
      "logsBloom": "0x00000000000000000000000000000000000000000000000000000000000000000000000000000000000000000000000000000000000000000100000000040000000000000000000000000008000000000000000000140000000000000000000000000000020000000000000000000800000000000080400000000010000000000000000000000000000000000000000000000000000000000000000000000000000000000000000000000000000008000000000000000000000000000000000000000002000000000000000000000000000000000000000000000000000060000000000000000000000000000000000000000008000000000000000000000000",
      "type": "0x2",
      "effectiveGasPrice": "0x13b995846f"
    },
    {
      "transactionHash": "0x4bdda2d27f1d990d8d014cd6007ee84ffb9597bfd05a51dfb493385b682b1d28",
      "transactionIndex": "0xf",
      "blockHash": "0xb379e37f893e5c4a5e4383df8519259e013303e133c94834ec5fea7b790c3b46",
      "blockNumber": "0x4dc365",
      "from": "0xb4f28403cC940878292046208Cb9476b00C5C197",
      "to": "0x19cfa3A50Abf669FF7000675e81F6A6Cbbe7436A",
      "cumulativeGasUsed": "0x30d9dc",
      "gasUsed": "0x20f6c",
      "contractAddress": null,
      "logs": [],
      "status": "0x1",
      "logsBloom": "0x00000000000000000000000000000000000000000000000000000000000000000000000000000000000000000000000000000000000000000000000000000000000000000000000000000000000000000000000000000000000000000000000000000000000000000000000000000000000000000000000000000000000000000000000000000000000000000000000000000000000000000000000000000000000000000000000000000000000000000000000000000000000000000000000000000000000000000000000000000000000000000000000000000000000000000000000000000000000000000000000000000000000000000000000000000000",
      "type": "0x2",
      "effectiveGasPrice": "0x13b995846f"
    }
  ],
  "libraries": [],
  "pending": [],
  "returns": {},
  "timestamp": 1705408539,
  "chain": 11155111,
  "multi": false,
  "commit": "878a08c"
}