{
  "transactions": [
    {
      "hash": "0xc8de459c7755797dd017b7334d2efe6b648fae3846527041df9a5a9f5f31d497",
      "transactionType": "CALL",
      "contractName": "MockERC721",
      "contractAddress": "0xB919133E05E67476e37748299c8235F83A331e9a",
      "function": "safeMint(address,uint256,string)",
      "arguments": [
        "0x872f2Fc756b18B3Cc028bd0Cee10a9aE1683Cc0B",
        "1",
        "\"ipfs://QmNspLBCSVPDPDqCMx4Yd4VoCLA5RTDbtAqphkLT4489ms/1.json\""
      ],
      "transaction": {
        "type": "0x02",
        "from": "0xb4f28403cc940878292046208cb9476b00c5c197",
        "to": "0xb919133e05e67476e37748299c8235f83a331e9a",
        "gas": "0x305e0",
        "value": "0x0",
        "data": "0xcd279c7c000000000000000000000000872f2fc756b18b3cc028bd0cee10a9ae1683cc0b00000000000000000000000000000000000000000000000000000000000000010000000000000000000000000000000000000000000000000000000000000060000000000000000000000000000000000000000000000000000000000000003c697066733a2f2f516d4e73704c424353565044504471434d7834596434566f434c41355254446274417170686b4c54343438396d732f312e6a736f6e00000000",
        "nonce": "0x3e",
        "accessList": []
      },
      "additionalContracts": [],
      "isFixedGasLimit": false
    },
    {
      "hash": "0x2b4975d22d47af80009bbfed0ae734e147ef9d899fd05f6e7025d20d0dfe63b3",
      "transactionType": "CALL",
      "contractName": "MockERC721",
      "contractAddress": "0xB919133E05E67476e37748299c8235F83A331e9a",
      "function": "safeMint(address,uint256,string)",
      "arguments": [
        "0x872f2Fc756b18B3Cc028bd0Cee10a9aE1683Cc0B",
        "2",
        "\"ipfs://QmNspLBCSVPDPDqCMx4Yd4VoCLA5RTDbtAqphkLT4489ms/2.json\""
      ],
      "transaction": {
        "type": "0x02",
        "from": "0xb4f28403cc940878292046208cb9476b00c5c197",
        "to": "0xb919133e05e67476e37748299c8235f83a331e9a",
        "gas": "0x2d1b5",
        "value": "0x0",
        "data": "0xcd279c7c000000000000000000000000872f2fc756b18b3cc028bd0cee10a9ae1683cc0b00000000000000000000000000000000000000000000000000000000000000020000000000000000000000000000000000000000000000000000000000000060000000000000000000000000000000000000000000000000000000000000003c697066733a2f2f516d4e73704c424353565044504471434d7834596434566f434c41355254446274417170686b4c54343438396d732f322e6a736f6e00000000",
        "nonce": "0x3f",
        "accessList": []
      },
      "additionalContracts": [],
      "isFixedGasLimit": false
    },
    {
      "hash": "0xc9df76727e6b2576503f103446bde7bff3bafe02c150eea19b3aa928d89ed05b",
      "transactionType": "CALL",
      "contractName": "MockERC721",
      "contractAddress": "0xB919133E05E67476e37748299c8235F83A331e9a",
      "function": "safeMint(address,uint256,string)",
      "arguments": [
        "0x872f2Fc756b18B3Cc028bd0Cee10a9aE1683Cc0B",
        "3",
        "\"ipfs://QmNspLBCSVPDPDqCMx4Yd4VoCLA5RTDbtAqphkLT4489ms/3.json\""
      ],
      "transaction": {
        "type": "0x02",
        "from": "0xb4f28403cc940878292046208cb9476b00c5c197",
        "to": "0xb919133e05e67476e37748299c8235f83a331e9a",
        "gas": "0x2d1b5",
        "value": "0x0",
        "data": "0xcd279c7c000000000000000000000000872f2fc756b18b3cc028bd0cee10a9ae1683cc0b00000000000000000000000000000000000000000000000000000000000000030000000000000000000000000000000000000000000000000000000000000060000000000000000000000000000000000000000000000000000000000000003c697066733a2f2f516d4e73704c424353565044504471434d7834596434566f434c41355254446274417170686b4c54343438396d732f332e6a736f6e00000000",
        "nonce": "0x40",
        "accessList": []
      },
      "additionalContracts": [],
      "isFixedGasLimit": false
    },
    {
      "hash": "0xbc3432eef0426919f190d1dbba6da14142d0e6580f8f87d331e78d173925b4df",
      "transactionType": "CALL",
      "contractName": "MockERC721",
      "contractAddress": "0xB919133E05E67476e37748299c8235F83A331e9a",
      "function": "safeMint(address,uint256,string)",
      "arguments": [
        "0x872f2Fc756b18B3Cc028bd0Cee10a9aE1683Cc0B",
        "4",
        "\"ipfs://QmNspLBCSVPDPDqCMx4Yd4VoCLA5RTDbtAqphkLT4489ms/4.json\""
      ],
      "transaction": {
        "type": "0x02",
        "from": "0xb4f28403cc940878292046208cb9476b00c5c197",
        "to": "0xb919133e05e67476e37748299c8235f83a331e9a",
        "gas": "0x2d1b5",
        "value": "0x0",
        "data": "0xcd279c7c000000000000000000000000872f2fc756b18b3cc028bd0cee10a9ae1683cc0b00000000000000000000000000000000000000000000000000000000000000040000000000000000000000000000000000000000000000000000000000000060000000000000000000000000000000000000000000000000000000000000003c697066733a2f2f516d4e73704c424353565044504471434d7834596434566f434c41355254446274417170686b4c54343438396d732f342e6a736f6e00000000",
        "nonce": "0x41",
        "accessList": []
      },
      "additionalContracts": [],
      "isFixedGasLimit": false
    },
    {
      "hash": "0xf3c526897d5233b3ee1588709c83b7c611dd91c444c94a70c6a9bd717a63cbf9",
      "transactionType": "CALL",
      "contractName": "MockERC721",
      "contractAddress": "0xB919133E05E67476e37748299c8235F83A331e9a",
      "function": "safeMint(address,uint256,string)",
      "arguments": [
        "0x872f2Fc756b18B3Cc028bd0Cee10a9aE1683Cc0B",
        "5",
        "\"ipfs://QmNspLBCSVPDPDqCMx4Yd4VoCLA5RTDbtAqphkLT4489ms/5.json\""
      ],
      "transaction": {
        "type": "0x02",
        "from": "0xb4f28403cc940878292046208cb9476b00c5c197",
        "to": "0xb919133e05e67476e37748299c8235f83a331e9a",
        "gas": "0x2d1b5",
        "value": "0x0",
        "data": "0xcd279c7c000000000000000000000000872f2fc756b18b3cc028bd0cee10a9ae1683cc0b00000000000000000000000000000000000000000000000000000000000000050000000000000000000000000000000000000000000000000000000000000060000000000000000000000000000000000000000000000000000000000000003c697066733a2f2f516d4e73704c424353565044504471434d7834596434566f434c41355254446274417170686b4c54343438396d732f352e6a736f6e00000000",
        "nonce": "0x42",
        "accessList": []
      },
      "additionalContracts": [],
      "isFixedGasLimit": false
    },
    {
      "hash": "0xb229a98af92745dd981e71a70401ee77c9629d379019fe05813b04dae78cf17b",
      "transactionType": "CALL",
      "contractName": "MockERC721",
      "contractAddress": "0xB919133E05E67476e37748299c8235F83A331e9a",
      "function": "safeMint(address,uint256,string)",
      "arguments": [
        "0x872f2Fc756b18B3Cc028bd0Cee10a9aE1683Cc0B",
        "6",
        "\"ipfs://QmNspLBCSVPDPDqCMx4Yd4VoCLA5RTDbtAqphkLT4489ms/6.json\""
      ],
      "transaction": {
        "type": "0x02",
        "from": "0xb4f28403cc940878292046208cb9476b00c5c197",
        "to": "0xb919133e05e67476e37748299c8235f83a331e9a",
        "gas": "0x2d1b5",
        "value": "0x0",
        "data": "0xcd279c7c000000000000000000000000872f2fc756b18b3cc028bd0cee10a9ae1683cc0b00000000000000000000000000000000000000000000000000000000000000060000000000000000000000000000000000000000000000000000000000000060000000000000000000000000000000000000000000000000000000000000003c697066733a2f2f516d4e73704c424353565044504471434d7834596434566f434c41355254446274417170686b4c54343438396d732f362e6a736f6e00000000",
        "nonce": "0x43",
        "accessList": []
      },
      "additionalContracts": [],
      "isFixedGasLimit": false
    },
    {
      "hash": "0x02dbadef44b0569ab3c0564ea778552c0a4448b4601a82d68205c1473d40f8a2",
      "transactionType": "CALL",
      "contractName": "MockERC721",
      "contractAddress": "0xB919133E05E67476e37748299c8235F83A331e9a",
      "function": "safeMint(address,uint256,string)",
      "arguments": [
        "0x872f2Fc756b18B3Cc028bd0Cee10a9aE1683Cc0B",
        "7",
        "\"ipfs://QmNspLBCSVPDPDqCMx4Yd4VoCLA5RTDbtAqphkLT4489ms/7.json\""
      ],
      "transaction": {
        "type": "0x02",
        "from": "0xb4f28403cc940878292046208cb9476b00c5c197",
        "to": "0xb919133e05e67476e37748299c8235f83a331e9a",
        "gas": "0x2d1b5",
        "value": "0x0",
        "data": "0xcd279c7c000000000000000000000000872f2fc756b18b3cc028bd0cee10a9ae1683cc0b00000000000000000000000000000000000000000000000000000000000000070000000000000000000000000000000000000000000000000000000000000060000000000000000000000000000000000000000000000000000000000000003c697066733a2f2f516d4e73704c424353565044504471434d7834596434566f434c41355254446274417170686b4c54343438396d732f372e6a736f6e00000000",
        "nonce": "0x44",
        "accessList": []
      },
      "additionalContracts": [],
      "isFixedGasLimit": false
    },
    {
      "hash": "0xfa6349306295858f7ad90e287b9eeab182b7a3474e9fe1fb9729e3a0d07838fc",
      "transactionType": "CALL",
      "contractName": "MockERC721",
      "contractAddress": "0xB919133E05E67476e37748299c8235F83A331e9a",
      "function": "safeMint(address,uint256,string)",
      "arguments": [
        "0x872f2Fc756b18B3Cc028bd0Cee10a9aE1683Cc0B",
        "8",
        "\"ipfs://QmNspLBCSVPDPDqCMx4Yd4VoCLA5RTDbtAqphkLT4489ms/8.json\""
      ],
      "transaction": {
        "type": "0x02",
        "from": "0xb4f28403cc940878292046208cb9476b00c5c197",
        "to": "0xb919133e05e67476e37748299c8235f83a331e9a",
        "gas": "0x2d1b5",
        "value": "0x0",
        "data": "0xcd279c7c000000000000000000000000872f2fc756b18b3cc028bd0cee10a9ae1683cc0b00000000000000000000000000000000000000000000000000000000000000080000000000000000000000000000000000000000000000000000000000000060000000000000000000000000000000000000000000000000000000000000003c697066733a2f2f516d4e73704c424353565044504471434d7834596434566f434c41355254446274417170686b4c54343438396d732f382e6a736f6e00000000",
        "nonce": "0x45",
        "accessList": []
      },
      "additionalContracts": [],
      "isFixedGasLimit": false
    },
    {
      "hash": "0x1e6f77a781d5c2d790a40d97cf11ee30afc57cb77f38b05ac8f411423b78c204",
      "transactionType": "CALL",
      "contractName": "MockERC721",
      "contractAddress": "0xB919133E05E67476e37748299c8235F83A331e9a",
      "function": "safeMint(address,uint256,string)",
      "arguments": [
        "0x872f2Fc756b18B3Cc028bd0Cee10a9aE1683Cc0B",
        "9",
        "\"ipfs://QmNspLBCSVPDPDqCMx4Yd4VoCLA5RTDbtAqphkLT4489ms/9.json\""
      ],
      "transaction": {
        "type": "0x02",
        "from": "0xb4f28403cc940878292046208cb9476b00c5c197",
        "to": "0xb919133e05e67476e37748299c8235f83a331e9a",
        "gas": "0x2d1b5",
        "value": "0x0",
        "data": "0xcd279c7c000000000000000000000000872f2fc756b18b3cc028bd0cee10a9ae1683cc0b00000000000000000000000000000000000000000000000000000000000000090000000000000000000000000000000000000000000000000000000000000060000000000000000000000000000000000000000000000000000000000000003c697066733a2f2f516d4e73704c424353565044504471434d7834596434566f434c41355254446274417170686b4c54343438396d732f392e6a736f6e00000000",
        "nonce": "0x46",
        "accessList": []
      },
      "additionalContracts": [],
      "isFixedGasLimit": false
    },
    {
      "hash": "0x372a6391577d6b58dad6fa0964d3a938e0eecdb4c92bc718020f84753366b26d",
      "transactionType": "CALL",
      "contractName": "MockERC721",
      "contractAddress": "0xB919133E05E67476e37748299c8235F83A331e9a",
      "function": "safeMint(address,uint256,string)",
      "arguments": [
        "0x872f2Fc756b18B3Cc028bd0Cee10a9aE1683Cc0B",
        "10",
        "\"ipfs://QmNspLBCSVPDPDqCMx4Yd4VoCLA5RTDbtAqphkLT4489ms/10.json\""
      ],
      "transaction": {
        "type": "0x02",
        "from": "0xb4f28403cc940878292046208cb9476b00c5c197",
        "to": "0xb919133e05e67476e37748299c8235f83a331e9a",
        "gas": "0x2a9ad",
        "value": "0x0",
        "data": "0xcd279c7c000000000000000000000000872f2fc756b18b3cc028bd0cee10a9ae1683cc0b000000000000000000000000000000000000000000000000000000000000000a0000000000000000000000000000000000000000000000000000000000000060000000000000000000000000000000000000000000000000000000000000003d697066733a2f2f516d4e73704c424353565044504471434d7834596434566f434c41355254446274417170686b4c54343438396d732f31302e6a736f6e000000",
        "nonce": "0x47",
        "accessList": []
      },
      "additionalContracts": [],
      "isFixedGasLimit": false
    },
    {
      "hash": "0x1be62d0d5a6c7b4ea8d1be0aa0168723bdfa6fcc62df53d0caf70faf97ea6ba0",
      "transactionType": "CALL",
      "contractName": "MockERC721",
      "contractAddress": "0xB919133E05E67476e37748299c8235F83A331e9a",
      "function": "safeMint(address,uint256,string)",
      "arguments": [
        "0x872f2Fc756b18B3Cc028bd0Cee10a9aE1683Cc0B",
        "11",
        "\"ipfs://QmNspLBCSVPDPDqCMx4Yd4VoCLA5RTDbtAqphkLT4489ms/11.json\""
      ],
      "transaction": {
        "type": "0x02",
        "from": "0xb4f28403cc940878292046208cb9476b00c5c197",
        "to": "0xb919133e05e67476e37748299c8235f83a331e9a",
        "gas": "0x2a9ad",
        "value": "0x0",
        "data": "0xcd279c7c000000000000000000000000872f2fc756b18b3cc028bd0cee10a9ae1683cc0b000000000000000000000000000000000000000000000000000000000000000b0000000000000000000000000000000000000000000000000000000000000060000000000000000000000000000000000000000000000000000000000000003d697066733a2f2f516d4e73704c424353565044504471434d7834596434566f434c41355254446274417170686b4c54343438396d732f31312e6a736f6e000000",
        "nonce": "0x48",
        "accessList": []
      },
      "additionalContracts": [],
      "isFixedGasLimit": false
    },
    {
      "hash": "0xee8421d689fd7ea3565e767bfa08869b049e58ea6e89bb83c87d9e2fdc19e899",
      "transactionType": "CALL",
      "contractName": "MockERC721",
      "contractAddress": "0xB919133E05E67476e37748299c8235F83A331e9a",
      "function": "safeMint(address,uint256,string)",
      "arguments": [
        "0x872f2Fc756b18B3Cc028bd0Cee10a9aE1683Cc0B",
        "12",
        "\"ipfs://QmNspLBCSVPDPDqCMx4Yd4VoCLA5RTDbtAqphkLT4489ms/12.json\""
      ],
      "transaction": {
        "type": "0x02",
        "from": "0xb4f28403cc940878292046208cb9476b00c5c197",
        "to": "0xb919133e05e67476e37748299c8235f83a331e9a",
        "gas": "0x2a9ad",
        "value": "0x0",
        "data": "0xcd279c7c000000000000000000000000872f2fc756b18b3cc028bd0cee10a9ae1683cc0b000000000000000000000000000000000000000000000000000000000000000c0000000000000000000000000000000000000000000000000000000000000060000000000000000000000000000000000000000000000000000000000000003d697066733a2f2f516d4e73704c424353565044504471434d7834596434566f434c41355254446274417170686b4c54343438396d732f31322e6a736f6e000000",
        "nonce": "0x49",
        "accessList": []
      },
      "additionalContracts": [],
      "isFixedGasLimit": false
    },
    {
      "hash": "0xa96e19accdbd76d4322d214783a7927987e62d6b0048163d4efce61c13ee7a01",
      "transactionType": "CALL",
      "contractName": "MockERC721",
      "contractAddress": "0xB919133E05E67476e37748299c8235F83A331e9a",
      "function": "safeMint(address,uint256,string)",
      "arguments": [
        "0x872f2Fc756b18B3Cc028bd0Cee10a9aE1683Cc0B",
        "13",
        "\"ipfs://QmNspLBCSVPDPDqCMx4Yd4VoCLA5RTDbtAqphkLT4489ms/13.json\""
      ],
      "transaction": {
        "type": "0x02",
        "from": "0xb4f28403cc940878292046208cb9476b00c5c197",
        "to": "0xb919133e05e67476e37748299c8235f83a331e9a",
        "gas": "0x2a9ad",
        "value": "0x0",
        "data": "0xcd279c7c000000000000000000000000872f2fc756b18b3cc028bd0cee10a9ae1683cc0b000000000000000000000000000000000000000000000000000000000000000d0000000000000000000000000000000000000000000000000000000000000060000000000000000000000000000000000000000000000000000000000000003d697066733a2f2f516d4e73704c424353565044504471434d7834596434566f434c41355254446274417170686b4c54343438396d732f31332e6a736f6e000000",
        "nonce": "0x4a",
        "accessList": []
      },
      "additionalContracts": [],
      "isFixedGasLimit": false
    },
    {
      "hash": "0x9d2d9dd1fc8c116ab1f3975cdc3f4d1aa4d992541dba8cc8dfab90c1406b29a6",
      "transactionType": "CALL",
      "contractName": "MockERC721",
      "contractAddress": "0xB919133E05E67476e37748299c8235F83A331e9a",
      "function": "safeMint(address,uint256,string)",
      "arguments": [
        "0x872f2Fc756b18B3Cc028bd0Cee10a9aE1683Cc0B",
        "14",
        "\"ipfs://QmNspLBCSVPDPDqCMx4Yd4VoCLA5RTDbtAqphkLT4489ms/14.json\""
      ],
      "transaction": {
        "type": "0x02",
        "from": "0xb4f28403cc940878292046208cb9476b00c5c197",
        "to": "0xb919133e05e67476e37748299c8235f83a331e9a",
        "gas": "0x2a9ad",
        "value": "0x0",
        "data": "0xcd279c7c000000000000000000000000872f2fc756b18b3cc028bd0cee10a9ae1683cc0b000000000000000000000000000000000000000000000000000000000000000e0000000000000000000000000000000000000000000000000000000000000060000000000000000000000000000000000000000000000000000000000000003d697066733a2f2f516d4e73704c424353565044504471434d7834596434566f434c41355254446274417170686b4c54343438396d732f31342e6a736f6e000000",
        "nonce": "0x4b",
        "accessList": []
      },
      "additionalContracts": [],
      "isFixedGasLimit": false
    },
    {
      "hash": "0xbad719908ccc41bce1e7cd4aaabea6e760d838a06a205feaf5c6ef1690e89ad3",
      "transactionType": "CALL",
      "contractName": "MockERC721",
      "contractAddress": "0xB919133E05E67476e37748299c8235F83A331e9a",
      "function": "safeMint(address,uint256,string)",
      "arguments": [
        "0x872f2Fc756b18B3Cc028bd0Cee10a9aE1683Cc0B",
        "15",
        "\"ipfs://QmNspLBCSVPDPDqCMx4Yd4VoCLA5RTDbtAqphkLT4489ms/15.json\""
      ],
      "transaction": {
        "type": "0x02",
        "from": "0xb4f28403cc940878292046208cb9476b00c5c197",
        "to": "0xb919133e05e67476e37748299c8235f83a331e9a",
        "gas": "0x2a9ad",
        "value": "0x0",
        "data": "0xcd279c7c000000000000000000000000872f2fc756b18b3cc028bd0cee10a9ae1683cc0b000000000000000000000000000000000000000000000000000000000000000f0000000000000000000000000000000000000000000000000000000000000060000000000000000000000000000000000000000000000000000000000000003d697066733a2f2f516d4e73704c424353565044504471434d7834596434566f434c41355254446274417170686b4c54343438396d732f31352e6a736f6e000000",
        "nonce": "0x4c",
        "accessList": []
      },
      "additionalContracts": [],
      "isFixedGasLimit": false
    },
    {
      "hash": "0xf5e0b09b8af014172bdb72d1c9298082a59f8738f324cf2d4133c8fc9c86728b",
      "transactionType": "CALL",
      "contractName": "MockERC721",
      "contractAddress": "0xB919133E05E67476e37748299c8235F83A331e9a",
      "function": "safeMint(address,uint256,string)",
      "arguments": [
        "0x872f2Fc756b18B3Cc028bd0Cee10a9aE1683Cc0B",
        "16",
        "\"ipfs://QmNspLBCSVPDPDqCMx4Yd4VoCLA5RTDbtAqphkLT4489ms/16.json\""
      ],
      "transaction": {
        "type": "0x02",
        "from": "0xb4f28403cc940878292046208cb9476b00c5c197",
        "to": "0xb919133e05e67476e37748299c8235f83a331e9a",
        "gas": "0x2a9ad",
        "value": "0x0",
        "data": "0xcd279c7c000000000000000000000000872f2fc756b18b3cc028bd0cee10a9ae1683cc0b00000000000000000000000000000000000000000000000000000000000000100000000000000000000000000000000000000000000000000000000000000060000000000000000000000000000000000000000000000000000000000000003d697066733a2f2f516d4e73704c424353565044504471434d7834596434566f434c41355254446274417170686b4c54343438396d732f31362e6a736f6e000000",
        "nonce": "0x4d",
        "accessList": []
      },
      "additionalContracts": [],
      "isFixedGasLimit": false
    },
    {
      "hash": "0xc260c37d01ba4587d6b3e41bb66cf159a2c65f12d3c6d89627be57725c052117",
      "transactionType": "CALL",
      "contractName": "MockERC721",
      "contractAddress": "0xB919133E05E67476e37748299c8235F83A331e9a",
      "function": "safeMint(address,uint256,string)",
      "arguments": [
        "0x872f2Fc756b18B3Cc028bd0Cee10a9aE1683Cc0B",
        "17",
        "\"ipfs://QmNspLBCSVPDPDqCMx4Yd4VoCLA5RTDbtAqphkLT4489ms/17.json\""
      ],
      "transaction": {
        "type": "0x02",
        "from": "0xb4f28403cc940878292046208cb9476b00c5c197",
        "to": "0xb919133e05e67476e37748299c8235f83a331e9a",
        "gas": "0x2a9ad",
        "value": "0x0",
        "data": "0xcd279c7c000000000000000000000000872f2fc756b18b3cc028bd0cee10a9ae1683cc0b00000000000000000000000000000000000000000000000000000000000000110000000000000000000000000000000000000000000000000000000000000060000000000000000000000000000000000000000000000000000000000000003d697066733a2f2f516d4e73704c424353565044504471434d7834596434566f434c41355254446274417170686b4c54343438396d732f31372e6a736f6e000000",
        "nonce": "0x4e",
        "accessList": []
      },
      "additionalContracts": [],
      "isFixedGasLimit": false
    }
  ],
  "receipts": [
    {
      "transactionHash": "0xc8de459c7755797dd017b7334d2efe6b648fae3846527041df9a5a9f5f31d497",
      "transactionIndex": "0x2a",
      "blockHash": "0xeab97fdc280808dc38d19a6fbc871cc9c86bb074769e7d152f128c8cdb049d90",
      "blockNumber": "0x4df12f",
      "from": "0xb4f28403cC940878292046208Cb9476b00C5C197",
      "to": "0xB919133E05E67476e37748299c8235F83A331e9a",
      "cumulativeGasUsed": "0x2bd945",
      "gasUsed": "0x23046",
      "contractAddress": null,
      "logs": [
        {
          "address": "0xB919133E05E67476e37748299c8235F83A331e9a",
          "topics": [
            "0xddf252ad1be2c89b69c2b068fc378daa952ba7f163c4a11628f55a4df523b3ef",
            "0x0000000000000000000000000000000000000000000000000000000000000000",
            "0x000000000000000000000000872f2fc756b18b3cc028bd0cee10a9ae1683cc0b",
            "0x0000000000000000000000000000000000000000000000000000000000000001"
          ],
          "data": "0x",
          "blockHash": "0xeab97fdc280808dc38d19a6fbc871cc9c86bb074769e7d152f128c8cdb049d90",
          "blockNumber": "0x4df12f",
          "transactionHash": "0xc8de459c7755797dd017b7334d2efe6b648fae3846527041df9a5a9f5f31d497",
          "transactionIndex": "0x2a",
          "logIndex": "0x24",
          "removed": false
        },
        {
          "address": "0xB919133E05E67476e37748299c8235F83A331e9a",
          "topics": [
            "0xf8e1a15aba9398e019f0b49df1a4fde98ee17ae345cb5f6b5e2c27f5033e8ce7"
          ],
          "data": "0x0000000000000000000000000000000000000000000000000000000000000001",
          "blockHash": "0xeab97fdc280808dc38d19a6fbc871cc9c86bb074769e7d152f128c8cdb049d90",
          "blockNumber": "0x4df12f",
          "transactionHash": "0xc8de459c7755797dd017b7334d2efe6b648fae3846527041df9a5a9f5f31d497",
          "transactionIndex": "0x2a",
          "logIndex": "0x25",
          "removed": false
        }
      ],
      "status": "0x1",
      "logsBloom": "0x00000000000000000000000000000020000000000000000000000000000000000000000100000000000000000000000000000000000000000000000000040000000000000000000000000008000000020040000040040000000000000000000000000000020000000000000400000800000000000000000000000010000000000000000000000000000000000000000000000000000000000000000000000000000000000000000000000000000000002000000000000000000000000000008000000002000000000000000000000000000000000000000000000000000060000000000000000000200000000000000000000000000000000000000000000000",
      "type": "0x2",
      "effectiveGasPrice": "0x1287abee0a"
    },
    {
      "transactionHash": "0x2b4975d22d47af80009bbfed0ae734e147ef9d899fd05f6e7025d20d0dfe63b3",
      "transactionIndex": "0x2b",
      "blockHash": "0xeab97fdc280808dc38d19a6fbc871cc9c86bb074769e7d152f128c8cdb049d90",
      "blockNumber": "0x4df12f",
      "from": "0xb4f28403cC940878292046208Cb9476b00C5C197",
      "to": "0xB919133E05E67476e37748299c8235F83A331e9a",
      "cumulativeGasUsed": "0x2dc6bf",
      "gasUsed": "0x1ed7a",
      "contractAddress": null,
      "logs": [
        {
          "address": "0xB919133E05E67476e37748299c8235F83A331e9a",
          "topics": [
            "0xddf252ad1be2c89b69c2b068fc378daa952ba7f163c4a11628f55a4df523b3ef",
            "0x0000000000000000000000000000000000000000000000000000000000000000",
            "0x000000000000000000000000872f2fc756b18b3cc028bd0cee10a9ae1683cc0b",
            "0x0000000000000000000000000000000000000000000000000000000000000002"
          ],
          "data": "0x",
          "blockHash": "0xeab97fdc280808dc38d19a6fbc871cc9c86bb074769e7d152f128c8cdb049d90",
          "blockNumber": "0x4df12f",
          "transactionHash": "0x2b4975d22d47af80009bbfed0ae734e147ef9d899fd05f6e7025d20d0dfe63b3",
          "transactionIndex": "0x2b",
          "logIndex": "0x26",
          "removed": false
        },
        {
          "address": "0xB919133E05E67476e37748299c8235F83A331e9a",
          "topics": [
            "0xf8e1a15aba9398e019f0b49df1a4fde98ee17ae345cb5f6b5e2c27f5033e8ce7"
          ],
          "data": "0x0000000000000000000000000000000000000000000000000000000000000002",
          "blockHash": "0xeab97fdc280808dc38d19a6fbc871cc9c86bb074769e7d152f128c8cdb049d90",
          "blockNumber": "0x4df12f",
          "transactionHash": "0x2b4975d22d47af80009bbfed0ae734e147ef9d899fd05f6e7025d20d0dfe63b3",
          "transactionIndex": "0x2b",
          "logIndex": "0x27",
          "removed": false
        }
      ],
      "status": "0x1",
      "logsBloom": "0x04000000000000000000000000000020000000000000000000000000000000000000000100000000000000000000000000000000000000000000000000000000000000000000000000000008000000020040000040000000000000000000000000000000020000000000000400000800000000000000000000000010000000000000000000000000000000000000000000000000000000000000000000000000000000000000000000000100000000002000000000000000000000000000008000000002000000000000000000000000000000000000000000000000000020000000000000000000200000000000000000000000008000000000000000000000",
      "type": "0x2",
      "effectiveGasPrice": "0x1287abee0a"
    },
    {
      "transactionHash": "0xc9df76727e6b2576503f103446bde7bff3bafe02c150eea19b3aa928d89ed05b",
      "transactionIndex": "0x2c",
      "blockHash": "0xeab97fdc280808dc38d19a6fbc871cc9c86bb074769e7d152f128c8cdb049d90",
      "blockNumber": "0x4df12f",
      "from": "0xb4f28403cC940878292046208Cb9476b00C5C197",
      "to": "0xB919133E05E67476e37748299c8235F83A331e9a",
      "cumulativeGasUsed": "0x2fb439",
      "gasUsed": "0x1ed7a",
      "contractAddress": null,
      "logs": [
        {
          "address": "0xB919133E05E67476e37748299c8235F83A331e9a",
          "topics": [
            "0xddf252ad1be2c89b69c2b068fc378daa952ba7f163c4a11628f55a4df523b3ef",
            "0x0000000000000000000000000000000000000000000000000000000000000000",
            "0x000000000000000000000000872f2fc756b18b3cc028bd0cee10a9ae1683cc0b",
            "0x0000000000000000000000000000000000000000000000000000000000000003"
          ],
          "data": "0x",
          "blockHash": "0xeab97fdc280808dc38d19a6fbc871cc9c86bb074769e7d152f128c8cdb049d90",
          "blockNumber": "0x4df12f",
          "transactionHash": "0xc9df76727e6b2576503f103446bde7bff3bafe02c150eea19b3aa928d89ed05b",
          "transactionIndex": "0x2c",
          "logIndex": "0x28",
          "removed": false
        },
        {
          "address": "0xB919133E05E67476e37748299c8235F83A331e9a",
          "topics": [
            "0xf8e1a15aba9398e019f0b49df1a4fde98ee17ae345cb5f6b5e2c27f5033e8ce7"
          ],
          "data": "0x0000000000000000000000000000000000000000000000000000000000000003",
          "blockHash": "0xeab97fdc280808dc38d19a6fbc871cc9c86bb074769e7d152f128c8cdb049d90",
          "blockNumber": "0x4df12f",
          "transactionHash": "0xc9df76727e6b2576503f103446bde7bff3bafe02c150eea19b3aa928d89ed05b",
          "transactionIndex": "0x2c",
          "logIndex": "0x29",
          "removed": false
        }
      ],
      "status": "0x1",
      "logsBloom": "0x00000000000000000000000000000020000000000000000000000000000000000000000100000000000000000000000000000000020000000000000000000000000000000000000000000008000000020040000040000000000000000000000000000000020000000000000400000800000000000000000000000010000000000000000000000000000000000000000000000000000000000000000000000000000000000000000000000000000000002000000000800000000000000000408000000002000000000000000000000000000000000000000000000000000020000000000000000000200000000000000000000000000000000000000000000000",
      "type": "0x2",
      "effectiveGasPrice": "0x1287abee0a"
    },
    {
      "transactionHash": "0xbc3432eef0426919f190d1dbba6da14142d0e6580f8f87d331e78d173925b4df",
      "transactionIndex": "0x2d",
      "blockHash": "0xeab97fdc280808dc38d19a6fbc871cc9c86bb074769e7d152f128c8cdb049d90",
      "blockNumber": "0x4df12f",
      "from": "0xb4f28403cC940878292046208Cb9476b00C5C197",
      "to": "0xB919133E05E67476e37748299c8235F83A331e9a",
      "cumulativeGasUsed": "0x31a1b3",
      "gasUsed": "0x1ed7a",
      "contractAddress": null,
      "logs": [
        {
          "address": "0xB919133E05E67476e37748299c8235F83A331e9a",
          "topics": [
            "0xddf252ad1be2c89b69c2b068fc378daa952ba7f163c4a11628f55a4df523b3ef",
            "0x0000000000000000000000000000000000000000000000000000000000000000",
            "0x000000000000000000000000872f2fc756b18b3cc028bd0cee10a9ae1683cc0b",
            "0x0000000000000000000000000000000000000000000000000000000000000004"
          ],
          "data": "0x",
          "blockHash": "0xeab97fdc280808dc38d19a6fbc871cc9c86bb074769e7d152f128c8cdb049d90",
          "blockNumber": "0x4df12f",
          "transactionHash": "0xbc3432eef0426919f190d1dbba6da14142d0e6580f8f87d331e78d173925b4df",
          "transactionIndex": "0x2d",
          "logIndex": "0x2a",
          "removed": false
        },
        {
          "address": "0xB919133E05E67476e37748299c8235F83A331e9a",
          "topics": [
            "0xf8e1a15aba9398e019f0b49df1a4fde98ee17ae345cb5f6b5e2c27f5033e8ce7"
          ],
          "data": "0x0000000000000000000000000000000000000000000000000000000000000004",
          "blockHash": "0xeab97fdc280808dc38d19a6fbc871cc9c86bb074769e7d152f128c8cdb049d90",
          "blockNumber": "0x4df12f",
          "transactionHash": "0xbc3432eef0426919f190d1dbba6da14142d0e6580f8f87d331e78d173925b4df",
          "transactionIndex": "0x2d",
          "logIndex": "0x2b",
          "removed": false
        }
      ],
      "status": "0x1",
      "logsBloom": "0x00000000000000000000000000000020000000000000000000000000000000000000000100000000000000000000000000000000000000000000000000000000000000000000000000000008000000020040000040000000000000000000000008000000020000000000000400000800000000000000000000000010000000000000000000000000000000000000000000000000000000000000000000000000000000000000000000000000000000002000000000000000002000000000008000000002000000000000000000000000000000008000000000000000000020000000000000000000200000000000000000000000000000000000000000000000",
      "type": "0x2",
      "effectiveGasPrice": "0x1287abee0a"
    },
    {
      "transactionHash": "0xf3c526897d5233b3ee1588709c83b7c611dd91c444c94a70c6a9bd717a63cbf9",
      "transactionIndex": "0x2e",
      "blockHash": "0xeab97fdc280808dc38d19a6fbc871cc9c86bb074769e7d152f128c8cdb049d90",
      "blockNumber": "0x4df12f",
      "from": "0xb4f28403cC940878292046208Cb9476b00C5C197",
      "to": "0xB919133E05E67476e37748299c8235F83A331e9a",
      "cumulativeGasUsed": "0x338f2d",
      "gasUsed": "0x1ed7a",
      "contractAddress": null,
      "logs": [
        {
          "address": "0xB919133E05E67476e37748299c8235F83A331e9a",
          "topics": [
            "0xddf252ad1be2c89b69c2b068fc378daa952ba7f163c4a11628f55a4df523b3ef",
            "0x0000000000000000000000000000000000000000000000000000000000000000",
            "0x000000000000000000000000872f2fc756b18b3cc028bd0cee10a9ae1683cc0b",
            "0x0000000000000000000000000000000000000000000000000000000000000005"
          ],
          "data": "0x",
          "blockHash": "0xeab97fdc280808dc38d19a6fbc871cc9c86bb074769e7d152f128c8cdb049d90",
          "blockNumber": "0x4df12f",
          "transactionHash": "0xf3c526897d5233b3ee1588709c83b7c611dd91c444c94a70c6a9bd717a63cbf9",
          "transactionIndex": "0x2e",
          "logIndex": "0x2c",
          "removed": false
        },
        {
          "address": "0xB919133E05E67476e37748299c8235F83A331e9a",
          "topics": [
            "0xf8e1a15aba9398e019f0b49df1a4fde98ee17ae345cb5f6b5e2c27f5033e8ce7"
          ],
          "data": "0x0000000000000000000000000000000000000000000000000000000000000005",
          "blockHash": "0xeab97fdc280808dc38d19a6fbc871cc9c86bb074769e7d152f128c8cdb049d90",
          "blockNumber": "0x4df12f",
          "transactionHash": "0xf3c526897d5233b3ee1588709c83b7c611dd91c444c94a70c6a9bd717a63cbf9",
          "transactionIndex": "0x2e",
          "logIndex": "0x2d",
          "removed": false
        }
      ],
      "status": "0x1",
      "logsBloom": "0x00000000000000000000000000000020000000000000000000000000000000000000000100000000000000000000000000000000000000000000000000000000000010000000000000000008000000020040000040000000000000000000000000000000020000000000000400000800000000000000000000000010000000000000000000000000000000000000001000000800000000000000000000000000000000000000000000000000000000002000000000000000000000000000008000000002000000000000000000000000000000000000000000000000000020000000000000000000200000000000000000000000000000000000000000000000",
      "type": "0x2",
      "effectiveGasPrice": "0x1287abee0a"
    },
    {
      "transactionHash": "0xb229a98af92745dd981e71a70401ee77c9629d379019fe05813b04dae78cf17b",
      "transactionIndex": "0x2f",
      "blockHash": "0xeab97fdc280808dc38d19a6fbc871cc9c86bb074769e7d152f128c8cdb049d90",
      "blockNumber": "0x4df12f",
      "from": "0xb4f28403cC940878292046208Cb9476b00C5C197",
      "to": "0xB919133E05E67476e37748299c8235F83A331e9a",
      "cumulativeGasUsed": "0x357ca7",
      "gasUsed": "0x1ed7a",
      "contractAddress": null,
      "logs": [
        {
          "address": "0xB919133E05E67476e37748299c8235F83A331e9a",
          "topics": [
            "0xddf252ad1be2c89b69c2b068fc378daa952ba7f163c4a11628f55a4df523b3ef",
            "0x0000000000000000000000000000000000000000000000000000000000000000",
            "0x000000000000000000000000872f2fc756b18b3cc028bd0cee10a9ae1683cc0b",
            "0x0000000000000000000000000000000000000000000000000000000000000006"
          ],
          "data": "0x",
          "blockHash": "0xeab97fdc280808dc38d19a6fbc871cc9c86bb074769e7d152f128c8cdb049d90",
          "blockNumber": "0x4df12f",
          "transactionHash": "0xb229a98af92745dd981e71a70401ee77c9629d379019fe05813b04dae78cf17b",
          "transactionIndex": "0x2f",
          "logIndex": "0x2e",
          "removed": false
        },
        {
          "address": "0xB919133E05E67476e37748299c8235F83A331e9a",
          "topics": [
            "0xf8e1a15aba9398e019f0b49df1a4fde98ee17ae345cb5f6b5e2c27f5033e8ce7"
          ],
          "data": "0x0000000000000000000000000000000000000000000000000000000000000006",
          "blockHash": "0xeab97fdc280808dc38d19a6fbc871cc9c86bb074769e7d152f128c8cdb049d90",
          "blockNumber": "0x4df12f",
          "transactionHash": "0xb229a98af92745dd981e71a70401ee77c9629d379019fe05813b04dae78cf17b",
          "transactionIndex": "0x2f",
          "logIndex": "0x2f",
          "removed": false
        }
      ],
      "status": "0x1",
      "logsBloom": "0x00000000000000000000000000000020000000000000000000000000000000000000000100000000000000000000000000000000000400000000000000000000000000000000000000000008000000020040000040000000000000000000000000000000020000000000000400000800000000000000000000000010000000000000000400000000000000000000000000000000000000000000000000000000000000000000000000000000000000002000000000000000000000080000008000000002000000000000000000000000000000000000000000000000000020000000000000000000200000000000000000000000000000000000000000000000",
      "type": "0x2",
      "effectiveGasPrice": "0x1287abee0a"
    },
    {
      "transactionHash": "0x02dbadef44b0569ab3c0564ea778552c0a4448b4601a82d68205c1473d40f8a2",
      "transactionIndex": "0x30",
      "blockHash": "0xeab97fdc280808dc38d19a6fbc871cc9c86bb074769e7d152f128c8cdb049d90",
      "blockNumber": "0x4df12f",
      "from": "0xb4f28403cC940878292046208Cb9476b00C5C197",
      "to": "0xB919133E05E67476e37748299c8235F83A331e9a",
      "cumulativeGasUsed": "0x376a21",
      "gasUsed": "0x1ed7a",
      "contractAddress": null,
      "logs": [
        {
          "address": "0xB919133E05E67476e37748299c8235F83A331e9a",
          "topics": [
            "0xddf252ad1be2c89b69c2b068fc378daa952ba7f163c4a11628f55a4df523b3ef",
            "0x0000000000000000000000000000000000000000000000000000000000000000",
            "0x000000000000000000000000872f2fc756b18b3cc028bd0cee10a9ae1683cc0b",
            "0x0000000000000000000000000000000000000000000000000000000000000007"
          ],
          "data": "0x",
          "blockHash": "0xeab97fdc280808dc38d19a6fbc871cc9c86bb074769e7d152f128c8cdb049d90",
          "blockNumber": "0x4df12f",
          "transactionHash": "0x02dbadef44b0569ab3c0564ea778552c0a4448b4601a82d68205c1473d40f8a2",
          "transactionIndex": "0x30",
          "logIndex": "0x30",
          "removed": false
        },
        {
          "address": "0xB919133E05E67476e37748299c8235F83A331e9a",
          "topics": [
            "0xf8e1a15aba9398e019f0b49df1a4fde98ee17ae345cb5f6b5e2c27f5033e8ce7"
          ],
          "data": "0x0000000000000000000000000000000000000000000000000000000000000007",
          "blockHash": "0xeab97fdc280808dc38d19a6fbc871cc9c86bb074769e7d152f128c8cdb049d90",
          "blockNumber": "0x4df12f",
          "transactionHash": "0x02dbadef44b0569ab3c0564ea778552c0a4448b4601a82d68205c1473d40f8a2",
          "transactionIndex": "0x30",
          "logIndex": "0x31",
          "removed": false
        }
      ],
      "status": "0x1",
      "logsBloom": "0x00000000000000000000000000000020000000000000000000000000000000000000000100000000000000000000000000001000000000000000000000000000000020000000000000000008000000020040000040000000000000000000000000000000020000000000000400000800000000000000000000000010000000000000000000000000000000000000000000000000000000000000000000000000000000000000000000000000000000002000000000000000000000000000008000000002000000000000000000000000000000000000000000000100000020000000000000000000200000000000000000000000000000000000000000000000",
      "type": "0x2",
      "effectiveGasPrice": "0x1287abee0a"
    },
    {
      "transactionHash": "0xfa6349306295858f7ad90e287b9eeab182b7a3474e9fe1fb9729e3a0d07838fc",
      "transactionIndex": "0x31",
      "blockHash": "0xeab97fdc280808dc38d19a6fbc871cc9c86bb074769e7d152f128c8cdb049d90",
      "blockNumber": "0x4df12f",
      "from": "0xb4f28403cC940878292046208Cb9476b00C5C197",
      "to": "0xB919133E05E67476e37748299c8235F83A331e9a",
      "cumulativeGasUsed": "0x39579b",
      "gasUsed": "0x1ed7a",
      "contractAddress": null,
      "logs": [
        {
          "address": "0xB919133E05E67476e37748299c8235F83A331e9a",
          "topics": [
            "0xddf252ad1be2c89b69c2b068fc378daa952ba7f163c4a11628f55a4df523b3ef",
            "0x0000000000000000000000000000000000000000000000000000000000000000",
            "0x000000000000000000000000872f2fc756b18b3cc028bd0cee10a9ae1683cc0b",
            "0x0000000000000000000000000000000000000000000000000000000000000008"
          ],
          "data": "0x",
          "blockHash": "0xeab97fdc280808dc38d19a6fbc871cc9c86bb074769e7d152f128c8cdb049d90",
          "blockNumber": "0x4df12f",
          "transactionHash": "0xfa6349306295858f7ad90e287b9eeab182b7a3474e9fe1fb9729e3a0d07838fc",
          "transactionIndex": "0x31",
          "logIndex": "0x32",
          "removed": false
        },
        {
          "address": "0xB919133E05E67476e37748299c8235F83A331e9a",
          "topics": [
            "0xf8e1a15aba9398e019f0b49df1a4fde98ee17ae345cb5f6b5e2c27f5033e8ce7"
          ],
          "data": "0x0000000000000000000000000000000000000000000000000000000000000008",
          "blockHash": "0xeab97fdc280808dc38d19a6fbc871cc9c86bb074769e7d152f128c8cdb049d90",
          "blockNumber": "0x4df12f",
          "transactionHash": "0xfa6349306295858f7ad90e287b9eeab182b7a3474e9fe1fb9729e3a0d07838fc",
          "transactionIndex": "0x31",
          "logIndex": "0x33",
          "removed": false
        }
      ],
      "status": "0x1",
      "logsBloom": "0x00000000000000000000000000000020000000000000000000000000000000000000000100000000000000000000000000000000000080000000000000000000000000000000000000000008000000020040000040000000000000000000000000000000020000000000000400000800000000000000000000000010000000000080000000000000000000000000000000000000000000000000000000000000000000000000000000000000000000002000000000000000000000000000008040000002000000000000000000000000000000000000000000000000000020000000000000000000200000000000000000000000000000000000000000000000",
      "type": "0x2",
      "effectiveGasPrice": "0x1287abee0a"
    },
    {
      "transactionHash": "0x1e6f77a781d5c2d790a40d97cf11ee30afc57cb77f38b05ac8f411423b78c204",
      "transactionIndex": "0x32",
      "blockHash": "0xeab97fdc280808dc38d19a6fbc871cc9c86bb074769e7d152f128c8cdb049d90",
      "blockNumber": "0x4df12f",
      "from": "0xb4f28403cC940878292046208Cb9476b00C5C197",
      "to": "0xB919133E05E67476e37748299c8235F83A331e9a",
      "cumulativeGasUsed": "0x3b4515",
      "gasUsed": "0x1ed7a",
      "contractAddress": null,
      "logs": [
        {
          "address": "0xB919133E05E67476e37748299c8235F83A331e9a",
          "topics": [
            "0xddf252ad1be2c89b69c2b068fc378daa952ba7f163c4a11628f55a4df523b3ef",
            "0x0000000000000000000000000000000000000000000000000000000000000000",
            "0x000000000000000000000000872f2fc756b18b3cc028bd0cee10a9ae1683cc0b",
            "0x0000000000000000000000000000000000000000000000000000000000000009"
          ],
          "data": "0x",
          "blockHash": "0xeab97fdc280808dc38d19a6fbc871cc9c86bb074769e7d152f128c8cdb049d90",
          "blockNumber": "0x4df12f",
          "transactionHash": "0x1e6f77a781d5c2d790a40d97cf11ee30afc57cb77f38b05ac8f411423b78c204",
          "transactionIndex": "0x32",
          "logIndex": "0x34",
          "removed": false
        },
        {
          "address": "0xB919133E05E67476e37748299c8235F83A331e9a",
          "topics": [
            "0xf8e1a15aba9398e019f0b49df1a4fde98ee17ae345cb5f6b5e2c27f5033e8ce7"
          ],
          "data": "0x0000000000000000000000000000000000000000000000000000000000000009",
          "blockHash": "0xeab97fdc280808dc38d19a6fbc871cc9c86bb074769e7d152f128c8cdb049d90",
          "blockNumber": "0x4df12f",
          "transactionHash": "0x1e6f77a781d5c2d790a40d97cf11ee30afc57cb77f38b05ac8f411423b78c204",
          "transactionIndex": "0x32",
          "logIndex": "0x35",
          "removed": false
        }
      ],
      "status": "0x1",
      "logsBloom": "0x00000000000000000000000000000020000000000000000000000000000000000000000100000000000000000000000000000000000000000000000000200000000000000000000000000008000000020040000040000000000000000000000000000000020000000000000400000800000000000000000000000010000000000000000000000000000000000000000000001000000000000000000000000000000000000000000000000000000000002000000000000000000000000000008000000002000000000000000000000000000000000000000000000000000020000000000000000000200000000000000000000000000000000000000000800000",
      "type": "0x2",
      "effectiveGasPrice": "0x1287abee0a"
    },
    {
      "transactionHash": "0x372a6391577d6b58dad6fa0964d3a938e0eecdb4c92bc718020f84753366b26d",
      "transactionIndex": "0x33",
      "blockHash": "0xeab97fdc280808dc38d19a6fbc871cc9c86bb074769e7d152f128c8cdb049d90",
      "blockNumber": "0x4df12f",
      "from": "0xb4f28403cC940878292046208Cb9476b00C5C197",
      "to": "0xB919133E05E67476e37748299c8235F83A331e9a",
      "cumulativeGasUsed": "0x3d329b",
      "gasUsed": "0x1ed86",
      "contractAddress": null,
      "logs": [
        {
          "address": "0xB919133E05E67476e37748299c8235F83A331e9a",
          "topics": [
            "0xddf252ad1be2c89b69c2b068fc378daa952ba7f163c4a11628f55a4df523b3ef",
            "0x0000000000000000000000000000000000000000000000000000000000000000",
            "0x000000000000000000000000872f2fc756b18b3cc028bd0cee10a9ae1683cc0b",
            "0x000000000000000000000000000000000000000000000000000000000000000a"
          ],
          "data": "0x",
          "blockHash": "0xeab97fdc280808dc38d19a6fbc871cc9c86bb074769e7d152f128c8cdb049d90",
          "blockNumber": "0x4df12f",
          "transactionHash": "0x372a6391577d6b58dad6fa0964d3a938e0eecdb4c92bc718020f84753366b26d",
          "transactionIndex": "0x33",
          "logIndex": "0x36",
          "removed": false
        },
        {
          "address": "0xB919133E05E67476e37748299c8235F83A331e9a",
          "topics": [
            "0xf8e1a15aba9398e019f0b49df1a4fde98ee17ae345cb5f6b5e2c27f5033e8ce7"
          ],
          "data": "0x000000000000000000000000000000000000000000000000000000000000000a",
          "blockHash": "0xeab97fdc280808dc38d19a6fbc871cc9c86bb074769e7d152f128c8cdb049d90",
          "blockNumber": "0x4df12f",
          "transactionHash": "0x372a6391577d6b58dad6fa0964d3a938e0eecdb4c92bc718020f84753366b26d",
          "transactionIndex": "0x33",
          "logIndex": "0x37",
          "removed": false
        }
      ],
      "status": "0x1",
      "logsBloom": "0x00000000000000000000000000000020000000000000000000000000000000000000000100000000000000000000000000000000040000000020000000000000000000000000000000000008000000020040000040000000000000000000000000000000020000000000000400000800000000000000000000000010000000000000000000000000010000000000000000000000000000000000000000000000000000000000000000000000000000002000000000000000000000000000008000000002000000000000000000000000000000000000000000000000000020000000000000000000200000000000000000000000000000000000000000000000",
      "type": "0x2",
      "effectiveGasPrice": "0x1287abee0a"
    },
    {
      "transactionHash": "0x1be62d0d5a6c7b4ea8d1be0aa0168723bdfa6fcc62df53d0caf70faf97ea6ba0",
      "transactionIndex": "0x34",
      "blockHash": "0xeab97fdc280808dc38d19a6fbc871cc9c86bb074769e7d152f128c8cdb049d90",
      "blockNumber": "0x4df12f",
      "from": "0xb4f28403cC940878292046208Cb9476b00C5C197",
      "to": "0xB919133E05E67476e37748299c8235F83A331e9a",
      "cumulativeGasUsed": "0x3f2021",
      "gasUsed": "0x1ed86",
      "contractAddress": null,
      "logs": [
        {
          "address": "0xB919133E05E67476e37748299c8235F83A331e9a",
          "topics": [
            "0xddf252ad1be2c89b69c2b068fc378daa952ba7f163c4a11628f55a4df523b3ef",
            "0x0000000000000000000000000000000000000000000000000000000000000000",
            "0x000000000000000000000000872f2fc756b18b3cc028bd0cee10a9ae1683cc0b",
            "0x000000000000000000000000000000000000000000000000000000000000000b"
          ],
          "data": "0x",
          "blockHash": "0xeab97fdc280808dc38d19a6fbc871cc9c86bb074769e7d152f128c8cdb049d90",
          "blockNumber": "0x4df12f",
          "transactionHash": "0x1be62d0d5a6c7b4ea8d1be0aa0168723bdfa6fcc62df53d0caf70faf97ea6ba0",
          "transactionIndex": "0x34",
          "logIndex": "0x38",
          "removed": false
        },
        {
          "address": "0xB919133E05E67476e37748299c8235F83A331e9a",
          "topics": [
            "0xf8e1a15aba9398e019f0b49df1a4fde98ee17ae345cb5f6b5e2c27f5033e8ce7"
          ],
          "data": "0x000000000000000000000000000000000000000000000000000000000000000b",
          "blockHash": "0xeab97fdc280808dc38d19a6fbc871cc9c86bb074769e7d152f128c8cdb049d90",
          "blockNumber": "0x4df12f",
          "transactionHash": "0x1be62d0d5a6c7b4ea8d1be0aa0168723bdfa6fcc62df53d0caf70faf97ea6ba0",
          "transactionIndex": "0x34",
          "logIndex": "0x39",
          "removed": false
        }
      ],
      "status": "0x1",
      "logsBloom": "0x00000000000000000000004000000020000000000000000000000000000000000000000100000000000000000000000000000000000000000000000000000000000000000000000000000008000000020040000040000000000000000000000000000000020000000000000400000800000000000000000000000010000000000000000000000000000000000000000000000000000000000000000000000000000000000000000000000000000000002000000000000000000000000000008000000002000000000000000000000000002000000000000000000000000020000000000000000000200000000000000000000000000000040000000000000000",
      "type": "0x2",
      "effectiveGasPrice": "0x1287abee0a"
    },
    {
      "transactionHash": "0xee8421d689fd7ea3565e767bfa08869b049e58ea6e89bb83c87d9e2fdc19e899",
      "transactionIndex": "0x35",
      "blockHash": "0xeab97fdc280808dc38d19a6fbc871cc9c86bb074769e7d152f128c8cdb049d90",
      "blockNumber": "0x4df12f",
      "from": "0xb4f28403cC940878292046208Cb9476b00C5C197",
      "to": "0xB919133E05E67476e37748299c8235F83A331e9a",
      "cumulativeGasUsed": "0x410da7",
      "gasUsed": "0x1ed86",
      "contractAddress": null,
      "logs": [
        {
          "address": "0xB919133E05E67476e37748299c8235F83A331e9a",
          "topics": [
            "0xddf252ad1be2c89b69c2b068fc378daa952ba7f163c4a11628f55a4df523b3ef",
            "0x0000000000000000000000000000000000000000000000000000000000000000",
            "0x000000000000000000000000872f2fc756b18b3cc028bd0cee10a9ae1683cc0b",
            "0x000000000000000000000000000000000000000000000000000000000000000c"
          ],
          "data": "0x",
          "blockHash": "0xeab97fdc280808dc38d19a6fbc871cc9c86bb074769e7d152f128c8cdb049d90",
          "blockNumber": "0x4df12f",
          "transactionHash": "0xee8421d689fd7ea3565e767bfa08869b049e58ea6e89bb83c87d9e2fdc19e899",
          "transactionIndex": "0x35",
          "logIndex": "0x3a",
          "removed": false
        },
        {
          "address": "0xB919133E05E67476e37748299c8235F83A331e9a",
          "topics": [
            "0xf8e1a15aba9398e019f0b49df1a4fde98ee17ae345cb5f6b5e2c27f5033e8ce7"
          ],
          "data": "0x000000000000000000000000000000000000000000000000000000000000000c",
          "blockHash": "0xeab97fdc280808dc38d19a6fbc871cc9c86bb074769e7d152f128c8cdb049d90",
          "blockNumber": "0x4df12f",
          "transactionHash": "0xee8421d689fd7ea3565e767bfa08869b049e58ea6e89bb83c87d9e2fdc19e899",
          "transactionIndex": "0x35",
          "logIndex": "0x3b",
          "removed": false
        }
      ],
      "status": "0x1",
      "logsBloom": "0x00000000000000000000000000000020000002000000000000000000000000000000000100000200000000000000000000000000000000000000000000000000000000000000000000000008000000020040000040000000000000000000000000000000020000000000000400000800000000000000000000000010000000000000000000000000000000000000000000000000000000000000000000000000000000000000000000000000000000002000000000000000000000000000008000000002000000000000000000000000000000000000000000000000000020200000000000000000200000000000000000000000000000000000000000000000",
      "type": "0x2",
      "effectiveGasPrice": "0x1287abee0a"
    },
    {
      "transactionHash": "0xa96e19accdbd76d4322d214783a7927987e62d6b0048163d4efce61c13ee7a01",
      "transactionIndex": "0x36",
      "blockHash": "0xeab97fdc280808dc38d19a6fbc871cc9c86bb074769e7d152f128c8cdb049d90",
      "blockNumber": "0x4df12f",
      "from": "0xb4f28403cC940878292046208Cb9476b00C5C197",
      "to": "0xB919133E05E67476e37748299c8235F83A331e9a",
      "cumulativeGasUsed": "0x42fb2d",
      "gasUsed": "0x1ed86",
      "contractAddress": null,
      "logs": [
        {
          "address": "0xB919133E05E67476e37748299c8235F83A331e9a",
          "topics": [
            "0xddf252ad1be2c89b69c2b068fc378daa952ba7f163c4a11628f55a4df523b3ef",
            "0x0000000000000000000000000000000000000000000000000000000000000000",
            "0x000000000000000000000000872f2fc756b18b3cc028bd0cee10a9ae1683cc0b",
            "0x000000000000000000000000000000000000000000000000000000000000000d"
          ],
          "data": "0x",
          "blockHash": "0xeab97fdc280808dc38d19a6fbc871cc9c86bb074769e7d152f128c8cdb049d90",
          "blockNumber": "0x4df12f",
          "transactionHash": "0xa96e19accdbd76d4322d214783a7927987e62d6b0048163d4efce61c13ee7a01",
          "transactionIndex": "0x36",
          "logIndex": "0x3c",
          "removed": false
        },
        {
          "address": "0xB919133E05E67476e37748299c8235F83A331e9a",
          "topics": [
            "0xf8e1a15aba9398e019f0b49df1a4fde98ee17ae345cb5f6b5e2c27f5033e8ce7"
          ],
          "data": "0x000000000000000000000000000000000000000000000000000000000000000d",
          "blockHash": "0xeab97fdc280808dc38d19a6fbc871cc9c86bb074769e7d152f128c8cdb049d90",
          "blockNumber": "0x4df12f",
          "transactionHash": "0xa96e19accdbd76d4322d214783a7927987e62d6b0048163d4efce61c13ee7a01",
          "transactionIndex": "0x36",
          "logIndex": "0x3d",
          "removed": false
        }
      ],
      "status": "0x1",
      "logsBloom": "0x00000000000000000040000000000020000000000000000000000000000000000000000100000000000000000000000000000000000000000000000000000000000000000000000000000008000000020042000040000000000000000000000000000000020000000000000400000800000000000000000000000010000000000000000000000000000000000000000000000000000000000000000000000000000000000000000000000000000000002000000000000000000000000000008000000002000000000000000000000000000000000000000000000000000020020000000000000000200000000000000000000000000000000000000000000000",
      "type": "0x2",
      "effectiveGasPrice": "0x1287abee0a"
    },
    {
      "transactionHash": "0x9d2d9dd1fc8c116ab1f3975cdc3f4d1aa4d992541dba8cc8dfab90c1406b29a6",
      "transactionIndex": "0x37",
      "blockHash": "0xeab97fdc280808dc38d19a6fbc871cc9c86bb074769e7d152f128c8cdb049d90",
      "blockNumber": "0x4df12f",
      "from": "0xb4f28403cC940878292046208Cb9476b00C5C197",
      "to": "0xB919133E05E67476e37748299c8235F83A331e9a",
      "cumulativeGasUsed": "0x44e8b3",
      "gasUsed": "0x1ed86",
      "contractAddress": null,
      "logs": [
        {
          "address": "0xB919133E05E67476e37748299c8235F83A331e9a",
          "topics": [
            "0xddf252ad1be2c89b69c2b068fc378daa952ba7f163c4a11628f55a4df523b3ef",
            "0x0000000000000000000000000000000000000000000000000000000000000000",
            "0x000000000000000000000000872f2fc756b18b3cc028bd0cee10a9ae1683cc0b",
            "0x000000000000000000000000000000000000000000000000000000000000000e"
          ],
          "data": "0x",
          "blockHash": "0xeab97fdc280808dc38d19a6fbc871cc9c86bb074769e7d152f128c8cdb049d90",
          "blockNumber": "0x4df12f",
          "transactionHash": "0x9d2d9dd1fc8c116ab1f3975cdc3f4d1aa4d992541dba8cc8dfab90c1406b29a6",
          "transactionIndex": "0x37",
          "logIndex": "0x3e",
          "removed": false
        },
        {
          "address": "0xB919133E05E67476e37748299c8235F83A331e9a",
          "topics": [
            "0xf8e1a15aba9398e019f0b49df1a4fde98ee17ae345cb5f6b5e2c27f5033e8ce7"
          ],
          "data": "0x000000000000000000000000000000000000000000000000000000000000000e",
          "blockHash": "0xeab97fdc280808dc38d19a6fbc871cc9c86bb074769e7d152f128c8cdb049d90",
          "blockNumber": "0x4df12f",
          "transactionHash": "0x9d2d9dd1fc8c116ab1f3975cdc3f4d1aa4d992541dba8cc8dfab90c1406b29a6",
          "transactionIndex": "0x37",
          "logIndex": "0x3f",
          "removed": false
        }
      ],
      "status": "0x1",
      "logsBloom": "0x00000000000000000000000000000020000000000000000000000000000000000000000100000000000000000000000000000000000000000000000000000000000000000000000800000008000000020040000040000000000000000000000000000000020000000000000400000800000000000000000000000010000000000000000000000000000000000000000008000000000000000000000000000000000000000000000000000000000000002000000000000020000000000000008000000002000000000000000000000000000000000000000000000000000020000000000000000000200000000000000000000000000000000000000000000000",
      "type": "0x2",
      "effectiveGasPrice": "0x1287abee0a"
    },
    {
      "transactionHash": "0xbad719908ccc41bce1e7cd4aaabea6e760d838a06a205feaf5c6ef1690e89ad3",
      "transactionIndex": "0x38",
      "blockHash": "0xeab97fdc280808dc38d19a6fbc871cc9c86bb074769e7d152f128c8cdb049d90",
      "blockNumber": "0x4df12f",
      "from": "0xb4f28403cC940878292046208Cb9476b00C5C197",
      "to": "0xB919133E05E67476e37748299c8235F83A331e9a",
      "cumulativeGasUsed": "0x46d639",
      "gasUsed": "0x1ed86",
      "contractAddress": null,
      "logs": [
        {
          "address": "0xB919133E05E67476e37748299c8235F83A331e9a",
          "topics": [
            "0xddf252ad1be2c89b69c2b068fc378daa952ba7f163c4a11628f55a4df523b3ef",
            "0x0000000000000000000000000000000000000000000000000000000000000000",
            "0x000000000000000000000000872f2fc756b18b3cc028bd0cee10a9ae1683cc0b",
            "0x000000000000000000000000000000000000000000000000000000000000000f"
          ],
          "data": "0x",
          "blockHash": "0xeab97fdc280808dc38d19a6fbc871cc9c86bb074769e7d152f128c8cdb049d90",
          "blockNumber": "0x4df12f",
          "transactionHash": "0xbad719908ccc41bce1e7cd4aaabea6e760d838a06a205feaf5c6ef1690e89ad3",
          "transactionIndex": "0x38",
          "logIndex": "0x40",
          "removed": false
        },
        {
          "address": "0xB919133E05E67476e37748299c8235F83A331e9a",
          "topics": [
            "0xf8e1a15aba9398e019f0b49df1a4fde98ee17ae345cb5f6b5e2c27f5033e8ce7"
          ],
          "data": "0x000000000000000000000000000000000000000000000000000000000000000f",
          "blockHash": "0xeab97fdc280808dc38d19a6fbc871cc9c86bb074769e7d152f128c8cdb049d90",
          "blockNumber": "0x4df12f",
          "transactionHash": "0xbad719908ccc41bce1e7cd4aaabea6e760d838a06a205feaf5c6ef1690e89ad3",
          "transactionIndex": "0x38",
          "logIndex": "0x41",
          "removed": false
        }
      ],
      "status": "0x1",
      "logsBloom": "0x00000000000000000000000000000020000000000000000000000000000000000000000100000000000000000000000000000000000000000000000000000000000000000000000000000008000000020040000040000000000000000002000000000000020000000000000400000800000000000000000000000010000000000000000000000800000000000000000000000000000000000000000000000000000000000000000000000000000000002000000000000000000000000000008000000002000000000000000000000000000000000000000000000000000020000000000200000000200000000000000000000000000000000000000000000000",
      "type": "0x2",
      "effectiveGasPrice": "0x1287abee0a"
    },
    {
      "transactionHash": "0xf5e0b09b8af014172bdb72d1c9298082a59f8738f324cf2d4133c8fc9c86728b",
      "transactionIndex": "0x39",
      "blockHash": "0xeab97fdc280808dc38d19a6fbc871cc9c86bb074769e7d152f128c8cdb049d90",
      "blockNumber": "0x4df12f",
      "from": "0xb4f28403cC940878292046208Cb9476b00C5C197",
      "to": "0xB919133E05E67476e37748299c8235F83A331e9a",
      "cumulativeGasUsed": "0x48c3bf",
      "gasUsed": "0x1ed86",
      "contractAddress": null,
      "logs": [
        {
          "address": "0xB919133E05E67476e37748299c8235F83A331e9a",
          "topics": [
            "0xddf252ad1be2c89b69c2b068fc378daa952ba7f163c4a11628f55a4df523b3ef",
            "0x0000000000000000000000000000000000000000000000000000000000000000",
            "0x000000000000000000000000872f2fc756b18b3cc028bd0cee10a9ae1683cc0b",
            "0x0000000000000000000000000000000000000000000000000000000000000010"
          ],
          "data": "0x",
          "blockHash": "0xeab97fdc280808dc38d19a6fbc871cc9c86bb074769e7d152f128c8cdb049d90",
          "blockNumber": "0x4df12f",
          "transactionHash": "0xf5e0b09b8af014172bdb72d1c9298082a59f8738f324cf2d4133c8fc9c86728b",
          "transactionIndex": "0x39",
          "logIndex": "0x42",
          "removed": false
        },
        {
          "address": "0xB919133E05E67476e37748299c8235F83A331e9a",
          "topics": [
            "0xf8e1a15aba9398e019f0b49df1a4fde98ee17ae345cb5f6b5e2c27f5033e8ce7"
          ],
          "data": "0x0000000000000000000000000000000000000000000000000000000000000010",
          "blockHash": "0xeab97fdc280808dc38d19a6fbc871cc9c86bb074769e7d152f128c8cdb049d90",
          "blockNumber": "0x4df12f",
          "transactionHash": "0xf5e0b09b8af014172bdb72d1c9298082a59f8738f324cf2d4133c8fc9c86728b",
          "transactionIndex": "0x39",
          "logIndex": "0x43",
          "removed": false
        }
      ],
      "status": "0x1",
      "logsBloom": "0x00000000100000000000000000000020000000000000000000000000000000000000000100000000000000000000000000000000000000000000000000000000000000000000000000000008000000020040000040000000000000000000000000000000020000000000000400000800000000000000000000000010040000000000000000000000000000000000000000000100000000000000000000000000000000000000000000000000000000002000000000000000000000000000008000000002000000000000000000000000000000000000000000000000000020000000000000000000200000000000000000000000000000000000000000000000",
      "type": "0x2",
      "effectiveGasPrice": "0x1287abee0a"
    },
    {
      "transactionHash": "0xc260c37d01ba4587d6b3e41bb66cf159a2c65f12d3c6d89627be57725c052117",
      "transactionIndex": "0x2b",
      "blockHash": "0xd80350dd9c8297b17145b05bd999e0471f9a157af7b1f2621ded12154fa272af",
      "blockNumber": "0x4df130",
      "from": "0xb4f28403cC940878292046208Cb9476b00C5C197",
      "to": "0xB919133E05E67476e37748299c8235F83A331e9a",
      "cumulativeGasUsed": "0x360f65",
      "gasUsed": "0x1ed86",
      "contractAddress": null,
      "logs": [
        {
          "address": "0xB919133E05E67476e37748299c8235F83A331e9a",
          "topics": [
            "0xddf252ad1be2c89b69c2b068fc378daa952ba7f163c4a11628f55a4df523b3ef",
            "0x0000000000000000000000000000000000000000000000000000000000000000",
            "0x000000000000000000000000872f2fc756b18b3cc028bd0cee10a9ae1683cc0b",
            "0x0000000000000000000000000000000000000000000000000000000000000011"
          ],
          "data": "0x",
          "blockHash": "0xd80350dd9c8297b17145b05bd999e0471f9a157af7b1f2621ded12154fa272af",
          "blockNumber": "0x4df130",
          "transactionHash": "0xc260c37d01ba4587d6b3e41bb66cf159a2c65f12d3c6d89627be57725c052117",
          "transactionIndex": "0x2b",
          "logIndex": "0x39",
          "removed": false
        },
        {
          "address": "0xB919133E05E67476e37748299c8235F83A331e9a",
          "topics": [
            "0xf8e1a15aba9398e019f0b49df1a4fde98ee17ae345cb5f6b5e2c27f5033e8ce7"
          ],
          "data": "0x0000000000000000000000000000000000000000000000000000000000000011",
          "blockHash": "0xd80350dd9c8297b17145b05bd999e0471f9a157af7b1f2621ded12154fa272af",
          "blockNumber": "0x4df130",
          "transactionHash": "0xc260c37d01ba4587d6b3e41bb66cf159a2c65f12d3c6d89627be57725c052117",
          "transactionIndex": "0x2b",
          "logIndex": "0x3a",
          "removed": false
        }
      ],
      "status": "0x1",
      "logsBloom": "0x00000000000000000000000000000020000000000000000000000000000000000000000100000000000000000000000000000000000000000000000000000000000000000000000000000008000000020040000040000000000000000000000000000000020000000000000400000800000000004000000000000010000000000000000000000000000000000000000000000000000000000000000000000000000000000000000000000000000000002000000000000000000000000400008000001002000000000000000000000000000000000000000000000000000020000000000000000000200000000000000000000000000000000000000000000000",
      "type": "0x2",
      "effectiveGasPrice": "0x12faadec3a"
    }
  ],
  "libraries": [],
  "pending": [],
  "returns": {},
  "timestamp": 1705579719,
  "chain": 11155111,
  "multi": false,
  "commit": "24c3717"
}