{
  "transactions": [
    {
      "hash": "0xff44c724f31c73954e47a931f65da920a73a90dbf8082f390ef8aaaadab58861",
      "transactionType": "CALL",
      "contractName": null,
      "contractAddress": "0x19cfa3A50Abf669FF7000675e81F6A6Cbbe7436A",
      "function": "setBaseUri(string)",
      "arguments": [
        "\"ipfs://QmYXJybDKfv5JD7zckBLZj9Bk9xBnWxsk8V85dtzLYXhjG/\""
      ],
      "transaction": {
        "type": "0x02",
        "from": "0xb4f28403cc940878292046208cb9476b00c5c197",
        "to": "0x19cfa3a50abf669ff7000675e81f6a6cbbe7436a",
        "gas": "0xd2f5",
        "value": "0x0",
        "data": "0xa0bcfc7f00000000000000000000000000000000000000000000000000000000000000200000000000000000000000000000000000000000000000000000000000000036697066733a2f2f516d59584a7962444b6676354a44377a636b424c5a6a39426b3978426e5778736b3856383564747a4c5958686a472f00000000000000000000",
        "nonce": "0x20",
        "accessList": []
      },
      "additionalContracts": [],
      "isFixedGasLimit": false
    }
  ],
  "receipts": [
    {
      "transactionHash": "0xff44c724f31c73954e47a931f65da920a73a90dbf8082f390ef8aaaadab58861",
      "transactionIndex": "0x12",
      "blockHash": "0xa4a91720b6efaf0725333892fa897a6270e1412f03feab44d3703996cee40a2b",
      "blockNumber": "0x4dc3d0",
      "from": "0xb4f28403cC940878292046208Cb9476b00C5C197",
      "to": "0x19cfa3A50Abf669FF7000675e81F6A6Cbbe7436A",
      "cumulativeGasUsed": "0x26efbe",
      "gasUsed": "0x98bc",
      "contractAddress": null,
      "logs": [],
      "status": "0x1",
      "logsBloom": "0x00000000000000000000000000000000000000000000000000000000000000000000000000000000000000000000000000000000000000000000000000000000000000000000000000000000000000000000000000000000000000000000000000000000000000000000000000000000000000000000000000000000000000000000000000000000000000000000000000000000000000000000000000000000000000000000000000000000000000000000000000000000000000000000000000000000000000000000000000000000000000000000000000000000000000000000000000000000000000000000000000000000000000000000000000000000",
      "type": "0x2",
      "effectiveGasPrice": "0xeafd39b38"
    }
  ],
  "libraries": [],
  "pending": [],
  "returns": {},
  "timestamp": 1705410099,
  "chain": 11155111,
  "multi": false,
  "commit": "878a08c"
}